:020000040800F2
:10000000803E0020050100080D0100080F010008D6
:10001000110100081301000815010008000000008C
:1000200000000000000000000000000017010008B0
:1000300019010008000000001B0100081D01000854
:100040001F0100081F0100081F0100081F01000810
:100050001F0100081F0100081F0100081F01000800
:100060001F0100081F010008091200081F010008F5
:100070001F0100081F0100081F0100081F010008E0
:100080001F0100081F0100081F0100081F010008D0
:100090001F0100081F0100081F0100081F010008C0
:1000A0001F0100081F0100081F0100081F010008B0
:1000B000091E00081F0100081F0100081F01000899
:1000C0001F0100081F0100081F0100081F01000890
:1000D0001F010008D92100086D220008A92300088B
:1000E0001F0100081F0100081F010008DFF810D0E1
:1000F00000F084FD0048004791370008AFF300800E
:10010000803E00200648804706480047FEE7FEE79D
:10011000FEE7FEE7FEE7FEE7FEE7FEE7FEE7FEE7B7
:10012000A91D0008ED000008A0F14101192900D81F
:100130002030704740EA01039B0703D009E008C95B
:10014000121F08C0042AFAD203E011F8013B00F89C
:10015000013B521EF9D27047D2B201E000F8012BE8
:10016000491EFBD270470022F6E710B513460A4637
:1001700004461946FFF7F0FF204610BD30B505468E
:100180002A460B4612F8010B13F8014B08B1A042A6
:10019000F8D01CB1002802D06D1CF1E7284630BD14
:1001A000421C10F8011B0029FBD1801A704710B5C2
:1001B000002200E0521C835C8C5CA34201D1002B26
:1001C000F8D1D8B2E1B2401A10BD30B505460020D2
:1001D000034600E05B1C934205D2EC5CC85C201A2D
:1001E00001D1002CF6D130BD2DE9FF4F087883B046
:1001F0009946FF2805D0491C2D2804D00024002052
:1002000008E000200BE00124F9E700EB800003EB9D
:100210004000491C0B78FF2BF7D104B1404200236A
:100220000293147819461D462D2C01D02B2C04D195
:10023000521C2D2C13D000240294AA461478FF2CB3
:100240000FD00A25A3FB057801FB05814FF0000CB8
:1002500003FB0C11521CE3194AEB0101EEE70124E8
:10026000EAE7814453EA010002D019F5C87F06DAB3
:1002700003980021C0E9001107B0BDE8F08F002508
:10028000AE4E2F46DFF8B882184600F077FCCDE975
:100290000001B9F1000002DAC9F1000400E00446EF
:1002A0000023A74A1AEB030B42EB045A12E0E007C3
:1002B00007D02A4633463846414600F0ECF9074657
:1002C00088462A4633461046194600F0E4F90546AA
:1002D0000E466410002CEAD1DDE90001B9F1000FEF
:1002E0005A46534606DA00F0DAFB3A46434600F037
:1002F000D6FB05E000F0CFF93A46434600F0CBF9D3
:10030000029A0AB181F00041039AC2E90001B3E701
:100310002DE9FF4F1F468DB0D7E901464FF0FF385A
:100320002E2045464FF000090B90B9696D1C0E98C0
:100330008847396A824688470028F6D1BAF1FF3FDC
:100340000AD024F4D064002E11DDBAF12B0F08D0AE
:10035000BAF12D0F0BD102E0404611B08DE744F405
:100360008064B9696D1C0E9888478246761E69467E
:10037000600501D52D2000E02B208DF8000001F153
:10038000010B0DF1200809E0B9696D1C0E98884732
:1003900082460F9844F40074761E0560002E02DD3C
:1003A000BAF1300FF0D00B998A453ED144F0800469
:1003B00006E00F99681CA9F1010944F40074086073
:1003C000B9696D1C761E0E98884782463028F0D099
:1003D0002BE00B998A4505D1200603D444F0800414
:1003E000761E18E0504602F0B5FA08B30DF113017D
:1003F000761E44F400748B4508D2AAF130000BF845
:10040000010B200607D5A9F1010003E0200602D464
:1004100009F101008146A00502D50F99681C08600A
:10042000B9696D1C0E9888478246002ED1DC53E0D6
:10043000002E51DDBAF1650F02D0BAF1450F4BD154
:10044000A00549D5B9696D1C24F44074761E0E9838
:1004500088478246002E0CDD2B2804D0BAF12D0FE0
:1004600007D144F48074B9696D1C0E9888478246A0
:10047000761EE00501D52D2100E02B2108F8011B97
:10048000CDF82C8021E00DF12901761E44F4007492
:1004900088450CD2AAF1300010F0FF0088F8000067
:1004A00002D10B99884509D908F1010806E0E00559
:1004B00001D5244801E042F20F708146B9696D1CF4
:1004C0000E98884782460F980560002E04DD50463E
:1004D00002F040FA0028D6D1F9690E988847FF202B
:1004E0008BF8000088F800000020069007904B462B
:1004F0006A4608A906A8FFF777FEA00502D46FF0A8
:1005000001002AE714F0240F0AD0E00714D1DDE936
:1005100006123868031D3B600068C0E900120BE05A
:10052000DDE9060100F04EFB0146E00704D1386822
:10053000021D3A600068016028460EE70000144082
:100540000000F03FF1D8FFFF2DE9FE4F804681EA21
:100550000300C00F0C46009021F0004123F000453D
:10056000B8EB0200A94105D24046214690461C4600
:100570000B46024623F00040104347D0270DC7F337
:100580000A00C3F30A510290401A019040286BDA26
:10059000C3F3130040F4801B0098924620B100235F
:1005A000D2EB030A63EB0B0B01985946C0F14002F2
:1005B000504600F078F906460D4650465946019AD5
:1005C00000F090F910EB08006141002487EA115215
:1005D00084EAE7731A4340D0009A62B3019A012A71
:1005E0004FEA075215DC001B61EB02014FF000429D
:1005F00002EA0752CDE90042001C41F58011324663
:100600002B4600F0FEF903B0BDE8F08F40462146CE
:10061000F9E7001B61EB0201001C41F58013001893
:100620005B412018A2F5001747EB030140EAD570A3
:10063000B6196D4111E06D084FEA360645EAC075FE
:100640004FEA0752001B61EB0201001C41F58011CB
:1006500049084FEA30000019514132462B4603B099
:10066000BDE8F04F00F0BEB9009801224000002321
:10067000D0EB020263EBE073009821464FEAE0748E
:10068000B8EB000061EB0401E9E783F000435BE7AE
:1006900081F0004158E72DE9FE4F81EA030404F0A0
:1006A000004421F0004100944FF0000B23F0004380
:1006B00050EA01045ED052EA03045BD0C3F30A544B
:1006C000C1F30A552C44A4F2F3340194A0FB025464
:1006D000C1F3130141F48011C3F3130343F48013F6
:1006E00001FB024400FB034E840A970A44EA81544A
:1006F00047EA8357A4FB076802958D0A05FB078527
:100700004FEA932C04FB0C542705029D4FEA065830
:1007100047EA1637B5EB08056EEB070C870E920E0D
:1007200047EA811742EA8312A7FB0201B6EB0B01ED
:1007300064EB00042B0D43EA0C335E1844EB1C50B1
:10074000DA465146E7FB0201C5F313044FEA0B33C7
:1007500043EA14534FEA0432019C43EA0603A4F12E
:100760000C040294009CCDE900B400F04AF903B0F7
:10077000BDE8F08F00200146F9E770B5C1F30A52D9
:1007800001F000450024C1F3130140F2FF3341F4AE
:1007900080119A4201DA002070BD40F233439A4240
:1007A000A2F2334203DC524200F08CF800E09040A9
:1007B0002C43F1D0404270BD30B5041E71F10004ED
:1007C00004DB4FF00044404264EB0101141E73F15E
:1007D000000405DB1C464FF00043524263EB040368
:1007E0008B4208BF824230BD30B5041E71F1000457
:1007F00004DB4FF00044404264EB0101141E73F12E
:10080000000405DB1C464FF00043524263EB040337
:10081000994208BF904230BD30B50B4601460020DA
:100820002022012409E021FA02F59D4205D303FAB2
:1008300002F5491B04FA02F52844151EA2F1010233
:10084000F1DC30BD2DE9F05F0546002092469B4665
:1008500088460646814640241BE0284641464746D6
:10086000224600F02FF853465A46C01A914110D341
:1008700011461846224600F016F82D1A67EB0108BB
:100880004F4622460120002100F00DF817EB000929
:100890004E41201EA4F10104DFDC484631462A46C1
:1008A0004346BDE8F09F202A04DB203A00FA02F11B
:1008B000002070479140C2F1200320FA03F319434E
:1008C00090407047202A04DB203A21FA02F00021F0
:1008D000704721FA02F3D040C2F120029140084350
:1008E00019467047202A06DBCB17203A41FA02F05E
:1008F00043EAE07306E041FA02F3D040C2F120027D
:100900009140084319467047426842B1016811F8A6
:10091000013B23B1521EC0E9001218467047012165
:10092000C160881E704742685AB1C368016843B904
:1009300083688B4205D0491E521CC0E9001200207A
:1009400070474FF0FF3070470FB4002300B589B0F7
:100950000CA900910B996FF00042CB601E4B0693DF
:100960001E4B07930423CDE901321D4A089202462B
:100970006B460020FFF7CCFC09B05DF814FB70B5A6
:1009800086B006464FF0FF300091CDE9010100200E
:1009900015460C4604903246694604A8FFF7D4FF7A
:1009A00002460498211825B108B1084600E0204607
:1009B0002860049800280DD0002A02DD00988842A3
:1009C00008D0081B0094CDE901043246694604A80A
:1009D000FFF7BAFF06B070BD090900082709000833
:1009E000210C000810B5141E73F1000408DA401C35
:1009F00041F1000192185B411A4301D120F001003E
:100A000010BD2DE9F04D92469B4611B1B1FA81F22D
:100A100002E0B0FA80F220329046FFF744FF04462D
:100A20000F4640EA0A0041EA0B0153465A46084382
:100A300013D0114653EA010019D0C8F140025046C4
:100A4000FFF740FF05460E46504659464246FFF71F
:100A50002AFF084305D0012004E020463946BDE8BE
:100A6000F08D0020054346EAE0762C4337430A9890
:100A70006305E40AA0EB08000022FD0A44EA47549B
:100A80000A3002D500200146E9E701051019694145
:100A9000DDE9084500196941BDE8F04DA2E72DE9FF
:100AA000F04D81EA030404F0004B21F000451446A8
:100AB0004FF0000A23F0004150EA050220D054EA2A
:100AC00001021DD0C5F30A570246C5F31303C1F353
:100AD0001300C1F30A5640F4801543F48013A7EBCA
:100AE0000608101BD64608F2FD3873EB050002D34A
:100AF00008F1010801E092185B41B8F1000F03DA38
:100B000000200146BDE8F08D00204FF4801106461C
:100B100084460EE0171B73EB050705D3121B63EB2E
:100B2000050306434CEA010C49084FEA30009218CD
:100B30005B4150EA0107EDD152EA030012D082EA8C
:100B4000040083EA0501084305D0101BAB4106D21F
:100B50000122002306E000224FF0004302E06FF084
:100B6000010253101AEB06004CEB085110EB0A007F
:100B700041EB0B01BDE8F04DFFF734BF0EB540F27D
:100B8000334202920022CDE900221346FFF739FFDB
:100B900003B000BDC1F30A52C1F3130140F2FF33A9
:100BA00041F480119A4202DA00200146704740F277
:100BB00033439A42A2F2334202DC5242FFF782BE32
:100BC000FFF771BE01F0004330B421F0004150EA5C
:100BD000010206D00A0DA2F56072C1F31301002ACA
:100BE00002DC30BC00207047440F44EAC104C1005D
:100BF000E01830BC00EBC25000F017B8064C074DAF
:100C000006E0E06840F0010394E8070098471034DC
:100C1000AC42F6D3FFF76EFA304E0008504E000893
:100C2000C0B24FF4F05100F037B80029A8BF7047A8
:100C3000401C490008BF20F00100704710B4B0FA12
:100C400080FC00FA0CF050EA010404BF10BC7047AD
:100C500049B1CCF1200421FA04F411FA0CF118BFC7
:100C6000012121430843A3EB0C01CB1D4FEA006196
:100C70004FEA102042BF002010BC704700EBC35069
:100C800010440029A4BF10BC7047401C490008BF95
:100C900020F0010010BC70477F2801D9002208E035
:100CA000064A02EB5002C007127800D1120902F086
:100CB0000F0201209040084070470000C54B00081B
:100CC00010B50446072301222146094800F096F892
:100CD0000121074800F0F3F800BF0221044800F0AA
:100CE00051F80028F9D0024800F048F810BD000083
:100CF0000028014021B1826842F00102826003E0D5
:100D0000826822F0010282607047000010B504463C
:100D10001248844208D10121401500F043FF002110
:100D2000601500F03FFF17E00D48844208D1012113
:100D3000001500F037FF0021201500F033FF0BE015
:100D40000848844208D10121C80300F02BFF00218C
:100D50004FF4004000F026FF10BD000000240140C9
:100D600000280140003C0140014600208A6802F052
:100D700004020AB1012000E0002070470146C86C5F
:100D800080B270470246002013680B400BB101206F
:100D900000E000207047014600208A6802F0080247
:100DA0000AB1012000E000207047000030B5024683
:100DB0000020002350680F4C20400D790C6844EA55
:100DC00005242043506090680B4C2040D1E9025428
:100DD0002C434D7944EA450420439060D06A20F4C6
:100DE00070000C7C641EE4B2234340EA0350D062DE
:100DF00030BD0000FFFEF0FFFDF7F1FFF0B5044647
:100E00000D4600200021092D11DDE068A5F10A063C
:100E100006EB4607072606FA07F18843A5F10A06FE
:100E200006EB460603FA06F10843E0600CE0206991
:100E300005EB4507072606FA07F1884305EB45064B
:100E400003FA06F108432061072A0FDA606B561E89
:100E500006EB86071F2606FA07F18843561E06EBA7
:100E6000860605FA06F10843606322E00D2A0FDAD0
:100E7000206BD61F06EB86071F2606FA07F188436C
:100E8000D61F06EB860605FA06F10843206310E03C
:100E9000E06AA2F10D0606EB86071F2606FA07F1A7
:100EA0008843A2F10D0606EB860605FA06F1084313
:100EB000E062F0BD816841F008018160704721B1B6
:100EC000826842F4A002826003E0826822F4A002F9
:100ED00082607047816841F00401816070470000C2
:100EE00010B504460723012221460948FFF786FF73
:100EF00001210748FFF7E3FF00BF02210448FFF785
:100F000041FF0028F9D00248FFF738FF10BD00006C
:100F10000024014000B587B00121880200F032FEB4
:100F20000121082000F02EFE4FF4004000F00EFEDC
:100F30000120ADF8180000208DF81B0006A9184804
:100F400000F014FB1748FFF7E1FE002001908DF838
:100F500008008DF809004FF46020039000200490F1
:100F600001208DF8140001A90E48FFF71FFF012191
:100F70000C48FFF7BFFE0B48FFF79CFF00BF094876
:100F8000FFF709FF0028FAD10648FFF7A3FF00BFCB
:100F90000448FFF7E9FE0028FAD107B000BD0000C1
:100FA000000C01400028014000B587B00121480233
:100FB00000F0E8FD0121042000F0E4FD4FF40040C2
:100FC00000F0C4FD0220ADF8180000208DF81B00D1
:100FD00006A9184800F0CAFA1748FFF797FE002044
:100FE00001908DF808008DF809004FF460200390FF
:100FF0000020049001208DF8140001A90E48FFF78D
:10100000D5FE01210C48FFF775FE0B48FFF752FF94
:1010100000BF0948FFF7BFFE0028FAD10648FFF7D6
:1010200059FF00BF0448FFF79FFE0028FAD107B020
:1010300000BD0000000801400024014010B500245C
:1010400000F034FB04E0601CC4B2012002F050F94F
:1010500080210F4800F015FB08B9642CF3DB642CE9
:1010600001DB002010BD002404E0601CC4B201209C
:1010700002F03EF98021064800F003FB08B1642C21
:10108000F3DB642C01DB0020ECE70120EAE7000041
:10109000000C014010B50121082000F073FD8020F4
:1010A000064908801020C87003208870044800F0AA
:1010B0005DFA00F06FF8FFF7C1FF10BD38000020A7
:1010C000000C014010B5002404E0601CC4B20120F3
:1010D00002F00EF98021104800F0D3FA08B1642C18
:1010E000F3DB002404E0601CC4B2012002F000F92C
:1010F0008021094800F0C5FA08B9642CF3DB1E20F2
:1011000002F0F6F88021044800F0BBFA08B1012093
:1011100010BD0020FCE70000000C014070B5002469
:10112000002506E06006040EFFF7CCFF0443681CB0
:10113000C5B2082DF6DB204670BD7CB505460E46CF
:1011400000F028F8FFF77AFF01281FD1002405E0FE
:10115000FFF7E4FF0DF80400601CC4B2052CF7DBB8
:101160009DF800009DF8011008449DF80210084405
:101170009DF8031008449DF80410884208D19DF89A
:10118000000030709DF80200287001E000207CBD56
:101190000120FCE710B500F095FA8021084800F026
:1011A00082FA1E2002F07EF88021054800F096FAAF
:1011B0001E2002F09DF88021014800F074FA10BD55
:1011C000000C014010B56FF0040000F0D9FD0A4892
:1011D00000680A49B0FBF1F0094908700846007838
:1011E00000EB4001C1EBC0104FF6FF7101EAC000F7
:1011F0000449088010BD00005000002000127A0051
:10120000120000201400002010B5102000F018F883
:1012100050B10F200549087008460178044800F0D5
:10122000F2FE102000F006F810BD000020000020A3
:1012300000040040014908607047000014040140A8
:10124000014600200022074B1B6803EA0102054B00
:1012500014331B680B4013B10AB1012000E00020D9
:101260007047000000040140002123498279002AD0
:101270003AD00A46126803689A430B461A600A1D60
:10128000126803689A430B1D1A60027911440A68B8
:1012900003681A430A60184A0832126803689A43BE
:1012A000154B08331A601A1D126803689A43124BD3
:1012B0000C331A604279102A0ED11A1F1268036883
:1012C0001A430D4B08331A601A1D126803681A433B
:1012D000094B0C331A600DE00749427911440A6842
:1012E00003681A430A6005E0027911440A6803683A
:1012F0009A430A60704700000004014010B502F0F4
:101300007BF904462CB133A001F0D8F94FF0FF303F
:1013100010BD3CA001F0D2F94FF47A7001F0C2FF89
:1013200002F096F904462CB142A001F0C7F96FF023
:101330000100EDE745A001F0C1F94FF47A7001F02A
:10134000B1FF4FF47A7001F0ADFF01F0F7FF0446F2
:101350002CB144A001F0B2F96FF00200D8E747A029
:1013600001F0ACF94FF47A7001F09CFF4FF47A7001
:1013700001F098FF002002F0DDF804462CB145A0F2
:1013800001F09CF96FF00300C2E74AA001F096F962
:101390004FF47A7001F086FF4FF47A7001F082FF0B
:1013A0004CA150A002F006F804462CB150A001F068
:1013B00085F96FF00400ABE754A001F07FF94FF41A
:1013C0007A7001F06FFF4FF47A7001F06BFF00202C
:1013D0009EE70000657370383236365F6578697451
:1013E0005F7472616E73706172656E745F74726146
:1013F0006E736D697373696F6E206661696C0D0A37
:1014000000000000657370383236365F65786974A5
:101410005F7472616E73706172656E745F74726115
:101420006E736D697373696F6E2073756363657333
:10143000730D0A00657370383236365F72657365F6
:1014400074206661696C0D0A0000000065737038D5
:101450003236365F726573657420737563636573C6
:10146000730D0A00657370383236365F63686563E2
:101470006B206661696C0D0A0000000065737038AE
:101480003236365F636865636B20737563636573BB
:10149000730D0A00657370383236365F656E6162AF
:1014A0006C655F6563686F283029206661696C0D23
:1014B0000A000000657370383236365F656E61620F
:1014C0006C655F6563686F28302973756363657346
:1014D000730D0A007A656E676C696E676C69616E80
:1014E000670000004D617465353050726F00000078
:1014F000657370383236365F636F6E6E6563745F26
:101500006170206661696C0D0A00000065737038B7
:101510003236365F636F6E6E6563745F6170207321
:101520007563636573730D0A0000000030B5002217
:101530008B071C0F0F2303FA04F20B4B8C1053F88C
:1015400024309343084C8D1044F8253023468C10EA
:1015500053F824308C07240F00FA04F42343024C80
:101560008D1044F8253030BD080001402DE9F041D0
:10157000024600250026002000230024002791F8C1
:1015800003C00CF00F0591F803C00CF0100CBCF177
:10159000000F03D091F802C04CEA050591F800C095
:1015A000BCF1000F31D0146800202BE04FF0010C8B
:1015B0000CFA00F3B1F800C00CEA03069E4220D1F9
:1015C00083004FF00F0C0CFA03F7BC4305FA03FC41
:1015D0004CEA040491F803C0BCF1280F06D14FF087
:1015E000010C0CFA00FCC2F814C00AE091F803C028
:1015F000BCF1480F05D14FF0010C0CFA00FCC2F809
:1016000010C0401C0828D1D31460B1F800C0BCF150
:10161000FF0F34DD546800202EE000F1080C4FF07D
:10162000010808FA0CF3B1F800C00CEA03069E4268
:1016300021D183004FF00F0C0CFA03F7BC4305FADD
:1016400003FC4CEA040491F803C0BCF1280F05D157
:1016500000F1080C08FA0CF8C2F8148091F803C0E5
:10166000BCF1480F07D100F1080C4FF0010808FA4F
:101670000CF8C2F81080401C0828CED35460BDE896
:10168000F0810246002093680B400BB1012000E07E
:101690000020704702460020D3680B400BB10120A8
:1016A00000E00020704741617047000010B5042041
:1016B0000249C8700248FFF759FF10BD38000020EA
:1016C000000C014010B510200249C8700248FFF715
:1016D0004DFF10BD38000020000C01400161704733
:1016E0002DE9F04107460C460025002608E0384663
:1016F000FFF7E6FA0544052001F0D4FD701CC6B2E0
:10170000A642F4DBB5FBF4F080B2BDE8F0812DE930
:10171000F04107460C460025002608E03846FFF752
:10172000DFFB0544052001F0BDFD701CC6B2A642DA
:10173000F4DBB5FBF4F080B2BDE8F0811FB5012108
:10174000092000F01FFA1020ADF8040048208DF8A1
:10175000070001A91148FFF709FF04210120FFF745
:10176000E5FE1020029000208DF80C000C208DF872
:101770000D0001208DF80E0002A8FFF775FD0A206C
:101780008DF8000000208DF801008DF80200012086
:101790008DF80300684600F097F91FBD000C01406A
:1017A00008B50121102000F0EDF94FF40050ADF81C
:1017B000000003208DF8020010208DF80300694618
:1017C0000448FFF7D3FE4FF400510248FFF786FFAD
:1017D00008BD00000010014008B50121082000F0FC
:1017E000D1F90220ADF8000004208DF8030069460D
:1017F0000148FFF7BBFE08BD000C014010B50221F7
:101800000448FFF73EFF012801D1002010BD012050
:10181000FCE70000000C014010B5002440F25B72B0
:101820002FA13BA001F02EFE04462CB139A000F000
:1018300045FF6FF0040010BD3EA000F03FFF4FF4E5
:10184000967001F02FFD01F08FFD04463CB142A0DF
:1018500000F034FF00BFFFF751FD0028FBD148A086
:1018600000F02CFF4FF47A7001F01CFD01F082FEB5
:1018700004462CB14DA000F021FF6FF00500DAE71F
:1018800056A000F01BFF4FF47A7001F00BFD4FF4EF
:101890007A7001F007FD5E4A5EA1634802F0F4F839
:1018A00028B162A000F00AFF6FF00600C3E764A051
:1018B00000F004FF4FF47A7001F0F4FC01220021E3
:1018C00065A002F029FC28B170A000F0F7FE6FF0CF
:1018D0000700B0E774A000F0F1FE0020ABE70000C5
:1018E000696F742D30367A30306A6F72676562774F
:1018F00034686A2E6D7174742E696F746875622E07
:10190000616C6979756E63732E636F6D0000000002
:1019100054435000657370383236365F636F6E6EB5
:101920006563745F736572766572206661696C0DBC
:101930000A000000657370383236365F636F6E6E72
:101940006563745F73657276657220737563636532
:1019500073730D0A00000000657370383236365F0D
:10196000636865636B5F636F6E6E656374696F6EEA
:101970005F737461747573206661696C0D0A000091
:10198000657370383236365F636865636B5F636FAB
:101990006E6E656374696F6E5F73746174757320C6
:1019A000737563636573730D0A00000065737038A7
:1019B0003236365F656E7472795F7472616E737001
:1019C0006172656E745F7472616E736D6973736951
:1019D0006F6E206661696C0D0A00000065737038D7
:1019E0003236365F656E7472795F7472616E7370D1
:1019F0006172656E745F7472616E736D6973736921
:101A00006F6E20737563636573730D0A00000000C9
:101A1000E04C000877696E646F77266B3063357031
:101A20005355543466440000244D00086D7174749D
:101A30005F636F6E6E656374206661696C0D0A008A
:101A40006D7174745F636F6E6E656374207375631C
:101A5000636573730D0A00002F7379732F6B306306
:101A600035705355543466442F77696E646F772F01
:101A70007468696E672F736572766963652F70721B
:101A80006F70657274792F73657400006D71747472
:101A90005F7375627363726962655F746F706963A7
:101AA000206661696C0D0A006D7174745F737562F4
:101AB0007363726962655F746F70696320737563C5
:101AC000636573730D0A000070B5002100230F22B7
:101AD000C47804B3154C246804F4E064C4F5E064ED
:101AE000210AC1F10403CA40447804FA03F184785E
:101AF0001440214309010E4C0678A155047804F0E6
:101B00001F050124AC4005786D11AD0005F1E025FD
:101B1000C5F8004109E0047804F01F050124AC4039
:101B2000044D0678761145F8264070BD0CED00E0B6
:101B300000E400E080E100E002490143024A116054
:101B4000704700000000FA050CED00E0014600209F
:101B5000034A506820F4404008435060704700003A
:101B60000010024029B1064AD2690243044BDA61EF
:101B700004E0034AD2698243014BDA6170470000F6
:101B80000010024029B1064A92690243044B9A614F
:101B900004E0034A92698243014B9A617047000056
:101BA0000010024029B1064AD2680243044BDA60B1
:101BB00004E0034AD2688243014BDA6070470000B8
:101BC0000010024030B500210022002400232D4DDA
:101BD0006D6805F00C0121B1042905D0082923D135
:101BE00005E0294D056022E0274D05601FE0254DE9
:101BF0006D6805F47012234D6D6805F4803402257C
:101C000005EB92421CB9214D554305600BE01D4D7B
:101C10006D6805F400351DB11C4D5543056002E0AB
:101C2000194D5543056002E0174D056000BF00BF28
:101C3000144D6D6805F0F0010909154D6B5C0568E0
:101C4000DD4045600F4D6D6805F4E061090A104DF7
:101C50006B5C4568DD4085600A4D6D6805F4605138
:101C6000C90A0B4D6B5C4568DD40C560054D6D686C
:101C700005F44041890B074D6B5CC568B5FBF3F576
:101C8000056130BD0010024000127A0000093D00DD
:101C90003C0000204C00002010B500F001F810BD01
:101CA0000CB50020019000903348006840F480306B
:101CB0003149086000BF3048006800F400300090EF
:101CC0000198401C0190009818B90198B0F5A06FD8
:101CD000F1D12948006800F4003010B101200090D3
:101CE00001E0002000900098012843D123480068BB
:101CF00040F01000214908600846006820F0070005
:101D000008600846006840F0020008601A48406811
:101D1000194948600846406848600846406840F4F1
:101D2000806048600846406820F47C10486008469F
:101D3000406840F4E81048600846006840F0807051
:101D4000086000BF0C48006800F000700028F9D05F
:101D50000948406820F00300074948600846406889
:101D600040F00200486000BF0348406800F00C00EB
:101D70000828F9D10CBD00000010024000200240EC
:101D8000042808D14FF0E021096941F004014FF027
:101D9000E022116107E04FF0E021096921F0040120
:101DA0004FF0E0221161704710B51348006840F011
:101DB00001001149086008464068104908400E4972
:101DC0004860084600680E4908400B49086008460C
:101DD000006820F4802008600846406820F4FE0077
:101DE00048604FF41F008860FFF756FF4FF0006017
:101DF0000449086010BD0000001002400000FFF818
:101E0000FFFFF6FE08ED00E010B50121880700F0A5
:101E10007BF801280DD107480068401C054908607F
:101E200005480068401C044908600121880700F04B
:101E30005CF810BD000000200400002000B589B04F
:101E400001210220FFF78EFE01210520FFF79AFEF7
:101E50008020ADF8200018208DF8230003208DF895
:101E6000220008A91748FFF781FB41F61F40ADF893
:101E70001400C720ADF818001420ADF80A000020A7
:101E8000ADF8160005A9104800F0C0F86020ADF8C4
:101E900004000120ADF806000020ADF80C0001A9F7
:101EA000094800F051F80821074800F09FF8012187
:101EB000054800F00BF80121034800F019F809B0BB
:101EC00000BD0000000801400004004021B102886C
:101ED00042F08002028004E002884FF67F731A40CD
:101EE00002807047CA4302827047CA430282704729
:101EF00021B1028842F00102028004E002884FF61C
:101F0000FE731A400280704730B50246002000235D
:101F10000024158A05EA0103958905EA010413B135
:101F20000CB1012000E0002030BD1AB183890B43C1
:101F3000838102E083898B438381704701894FF657
:101F4000F87211400181704770B50024002200230F
:101F5000058C4FF6EF7635400584028C8388048B20
:101F600048F6FF752C404FF6FF452C400D884FF684
:101F7000FF7606EA05252C434FF6DF752A400D89CA
:101F800006EA05152A434D8806EA05152A43154D2C
:101F9000A84202D0144DA8421DD14FF67F752A40A9
:101FA0004D894FF6FF7606EA05152A434FF6BF75B1
:101FB0002A408D8806EA05152A434FF6FF352B4047
:101FC0004FF2FF752B408D8906EA85052B43CD899D
:101FD00006EA85052B4383800483CD880587028428
:101FE00070BD0000002C0140003401400A46002171
:101FF000018B4FF2FF7319404FF6FF7303EA022380
:10200000194301837047018770470000002202884E
:102010001D4B98420ED01D4B98420BD0B0F1804F13
:1020200008D01B4B984205D01A4B984202D01A4B4D
:10203000984204D14FF68F731A404B881A43174BBE
:10204000984207D0164B984204D04FF6FF431A40EF
:10205000CB881A4302808B8883850B8803850A4BC3
:1020600098420BD0094B984208D00E4B984205D0AD
:102070000D4B984202D00D4B984201D10B7A03864A
:102080000123838270470000002C0140003401408E
:102090000004004000080040000C00400010004018
:1020A000001400400040014000440140004801404D
:1020B0001FB501210846FFF755FD4FF08040FFF79F
:1020C0003DFF0020ADF80A00ADF8060048F69F403D
:1020D000ADF808004CF24F30ADF8040000208DF848
:1020E0000C0001A94FF08040FFF790FF0121880705
:1020F000FFF7F8FE012211469007FFF716FF4FF495
:10210000A060FFF719FD1C208DF8000001208DF85C
:10211000030002208DF8010001208DF802006846BE
:10212000FFF7D2FC01218807FFF7E2FE1FBD000088
:1021300010B586B0044601210420FFF723FD0121DC
:102140008803FFF71FFD4FF40070ADF80000032077
:102150008DF8020018208DF8030069461C48FFF72F
:1021600005FA4FF48060ADF8000004208DF80300FC
:1021700069461748FFF7FAF902940020ADF80C0001
:10218000ADF80E00ADF81000ADF814000C20ADF85D
:10219000120002A90F4800F0B7F925208DF80400BD
:1021A00000208DF805008DF8060001208DF807004D
:1021B00001A8FFF789FC012240F22551054800F0F3
:1021C0007EF90121034800F037F906B010BD000088
:1021D000000801400038014010B540F225511C486C
:1021E00000F043F970B11A4800F0FAF91949087083
:1021F00008460178184802780078401C164B187081
:102200001648815414480078401E1449085C2E2852
:1022100012D113A11148FDF7CAFF28B91248C068AE
:1022200080F400501049C86000200B4908704FF43A
:1022300080710A48FDF797FF06480178044800F0CE
:10224000D4F940F22771024800F0E7F810BD000011
:102250000038014009000020080000207000002024
:102260004C45445F4F4E2E000010014010B540F227
:1022700025511C4800F0F9F870B11A4800F0B0F987
:102280001949087008460178184802780078401CFF
:10229000164B18701648815414480078401E144993
:1022A000085C2E2812D113A11148FDF780FF28B930
:1022B0001248C06880F400501049C86000200B49E3
:1022C00008704FF480710A48FDF74DFF0648017809
:1022D000044800F08AF940F22771024800F09DF8A6
:1022E00010BD0000004400400B0000200A00002048
:1022F000700100204C45445F4F4E2E0000100140FD
:1023000010B586B0044601210820FFF73BFC0121EF
:102310008804FFF727FC4FF48060ADF8000003202D
:102320008DF8020018208DF8030069461C48FFF75D
:102330001DF94FF40060ADF8000004208DF8030093
:1023400069461748FFF712F902940020ADF80C0017
:10235000ADF80E00ADF81000ADF814000C20ADF88B
:10236000120002A90F4800F0CFF827208DF80400D2
:1023700000208DF805008DF8060001208DF807007B
:1023800001A8FFF7A1FB012240F22551054800F00A
:1023900096F80121034800F04FF806B010BD000088
:1023A000000C01400048004010B540F22551114892
:1023B00000F05BF8B8B10F4800F012F90E49087050
:1023C0000A780E490868411C0C4B19600C490A54E4
:1023D00018460068B0F5007F05D300201946086054
:1023E00001200849087040F22551024800F015F814
:1023F00010BD000000480040100000200C0000202C
:10240000700400201100002001F40072B2F5007F7A
:1024100000D100BFCA430280704710B500220023DC
:1024200040F66A14A14200D100BF0A120124944070
:10243000A3B2DC43048010BD21B1828942F4005272
:10244000828104E082894DF6FF731A4082817047D1
:1024500002460020B1F5007F00D100BF13880B4079
:102460000BB1012000E00020704770B50246002447
:1024700000230025002040F66A16B14200D100BFBB
:10248000C1F3421501F01F03012606FA03F3012DE3
:1024900002D19689334006E0022D02D1168A3340DC
:1024A00001E0968A33400C12012606FA04F41688DD
:1024B000344013B10CB1012000E0002070BDF0B534
:1024C0000346002400260025002040F66A17B94282
:1024D00000D100BF1846C1F3421401F01F060127C6
:1024E00007FA06F5012C01D10C3004E0022C01D1D1
:1024F000103000E014301AB107682F43076002E083
:102500000768AF430760F0BD2DE9F04786B0054688
:102510000E460024A24600BFA1460027B08900B1A4
:1025200000BF2F462C8A4CF6FF700440F08804430D
:102530002C82AC894EF6F3100440B08831890843F0
:10254000718908430443AC81AC8A4FF6FF400440D4
:10255000B0890443AC8201A8FFF734FB1F488742CF
:1025600002D1DDF810A001E0DDF80CA0A88900F48C
:10257000004040B10AEBCA0000EB0A103168490084
:10258000B0FBF1F807E00AEBCA0000EB0A10316873
:102590008900B0FBF1F86420B8FBF0F004012009D9
:1025A000642101FB1089A88900F4004040B1322069
:1025B00000EBC900B0FBF1F000F00700044308E0B5
:1025C000322000EB09106421B0FBF1F000F00F00A5
:1025D00004432C8106B0BDE8F087000000380140BC
:1025E00001468888C0F308007047C1F30802828062
:1025F000704770B504460D4629462046FFF7F5FFA3
:1026000000BF80212046FFF723FF0028F9D070BDCE
:102610002DE9F04107460C46154626460FE0317875
:102620003846FFF7E2FF761C00BF80213846FFF7EF
:102630000FFF0028F9D080213846FFF7E5FE281E5D
:10264000A5F10105EBD1BDE8F08170B506460C4659
:10265000002500BF615D3046FFF7CBFF6D1C605D5C
:102660000028F7D100BF40213046FFF7F1FE0028D7
:10267000F9D040213046FFF7C7FE70BD08B50121F3
:102680000420FFF77FFA0120ADF8000004208DF848
:10269000030069460148FEF769FF08BD00080140D4
:1026A00010B501210448FEF7ECFF012801D10020FC
:1026B00010BD0120FCE70000000801400FB4054BED
:1026C00010B503A9044A029800F04CF910BC5DF85B
:1026D00014FB0000C5360008640000200FB4084B4E
:1026E00010B504A902AA039800F03CF9044602A917
:1026F000002000F0BAFC204610BC5DF814FB00007E
:102700006B30000830B528B1144C031F002021683D
:102710000A4605E0084630BD9A4203D81046526882
:10272000002AF9D1002800D041680BD00468A3EB3F
:102730000005A54204D11B681C440346046002E066
:10274000436000E023603AB11C68D51AA54203D16A
:1027500015682C441C6052685A6030BD6800002027
:102760002DE9F04782460F4C10480D4E0E4F001BCE
:102770004FF0000820F007054FF001090022114634
:10278000504600F0DDFF002802D1306810B1002073
:10279000BDE8F0873C60C4E90058C6F80090EDE75A
:1027A0006C00002084080020680000208038002091
:1027B00002E008C8121F08C1002AFAD1704770470A
:1027C000002001E001C1121F002AFBD17047000068
:1027D0002DE9FF5F82B00021DDE90430020DDDF854
:1027E00040B0034318D044F61050A2F2FF324243E7
:1027F0001514119801281FD0A5EB0B00401C5FEAAF
:10280000000A4FF000064E4FDFF83891B0465046B0
:1028100015D5CAF1000413E0119801244AA3012838
:1028200001D16FEA0B010298119AC0E90031C0E9A9
:10283000024206B0BDE8F09FCBF10000DFE704469E
:102840000021404A491842EB0450CDE9001012E043
:10285000E00707D032463B4640464946FDF71BFF9E
:102860008046894632463B4610461946FDF713FF1F
:1028700006460F466410002CEAD1DDE90401DDE9CB
:102880000023BAF1000F06DAFDF705FF42464B467A
:10289000FDF701FF05E0FEF702F942464B46FEF761
:1028A000FEF804460E460022284BFDF79DFF03D894
:1028B0004FF0FF30014607E00022254B204631460D
:1028C000FDF742FEFEF766F9102409E0002C0ADB52
:1028D0000A220023FDF7B6FF039B30321A55641E0F
:1028E00050EA0102F2D1641C039AC4F111031444AA
:1028F000119A012A03D0012208430DD10AE00843AE
:1029000004D000204FF0110B119072E7A3EB0B05E0
:102910006D1E0DE05B4504DD4FF0000205F1010581
:1029200004E003DA4FF00002A5F10105002AECD023
:1029300002981199C0E90231C0E9004579E7000029
:10294000000014400000F03F300000000000F043A1
:102950000000E03F30380A2801D2012070470020F3
:10296000704700002DE9FF4F95B09A46884606460D
:102970000025EEE1252877D100242746F94A0121D8
:10298000039400E0044316F8013F203B01FA03F0F2
:102990001042F7D130782A2811D06FF02F03307809
:1029A000A0F13002092A16D8039A44F0020402EB7F
:1029B000820203EB42021044761C0390EFE758F8C2
:1029C000042B0392002A03DA504244F4005403908B
:1029D00044F00204761C30782E2816D116F8010F28
:1029E00044F004042A280DD06FF02F023078A0F1B3
:1029F0003003092B09D807EB870302EB4303C71801
:102A0000761CF3E758F8047B761C30786C280FD0DE
:102A100006DC4C2817D068280DD06A2814D104E0B1
:102A2000742810D07A280FD10DE044F400140AE085
:102A300044F4801401E044F440147278824202D1DC
:102A400004F58014761C761C307866280BD013DCD5
:102A5000582877D009DC002875D04528F6D04628BC
:102A6000F4D047281AD193E118E0632835D06428C0
:102A700079D0652812D18BE1702873D008DC6728E3
:102A8000F1D069286FD06E280DD06F2806D1ACE048
:102A900073282CD0752874D0782853D052461799B3
:102AA00090476D1C54E1C4F30250022809D003285A
:102AB0000DD0D8F8001004280DD00D6008F10408DE
:102AC00046E1D8F80010EA17C1E90052F6E7D8F855
:102AD00000100D80F2E70D70F0E718F8041B8DF878
:102AE000001000208DF80100EB46012003E058F8AB
:102AF00004BB4FF0FF3061074FF0000102D40DE03E
:102B000009F101018946B9420FDA8145F8DB1BF86A
:102B100009100029F4D108E009F101018946814238
:102B2000FADB1BF809100029F6D103985346A0EBF5
:102B3000090721463846179A00F080FA284400EB2E
:102B4000090507E044E008E10DE01BF8010B5246DF
:102B500017999047B9F10109F7D2534621463846F3
:102B6000179AF2E039E00A21C4F302524FF0000B49
:102B70000091022A06D058F8040BC117032A09D085
:102B80000AE023E008F1070020F00702F2E8020162
:102B9000904605E000B2C117042A01D140B2C11726
:102BA000002906DA0A460021404261EB02012D228B
:102BB00002E0220504D52B228DF80420012203E037
:102BC000E20701D02022F7E7914657E00A2100E012
:102BD00010214FF0000B00910BE010214FF0000B83
:102BE00044F004040827009103E008204FF0000B94
:102BF0000090C4F30252022A05D058F8040B0021B9
:102C0000032A08D008E008F1070020F00702F2E8E4
:102C10000201904603E080B2042A00D1C0B24FF016
:102C2000000922072AD53278702A07D0DDF800C0C3
:102C30008CF0100C5CEA0B0C05D00EE040228DF8F5
:102C40000420012208E050EA010306D030238DF869
:102C500004308DF8052002229146009B83F0080382
:102C600053EA0B030AD150EA010201D1620705D5EC
:102C700030228DF804204FF001097F1E3278582A47
:102C800004D039A20C920CAA02920BE03BA2F9E705
:102C90005B46009AFDF7D6FD0C9B9B5C029A521E88
:102CA0000292137050EA0102F2D1029804A9081AA4
:102CB00000F1200B600702D524F4803400E00127E6
:102CC0005F4502DDA7EB0B0000E0002000EB0B01ED
:102CD000009003984944401A0390E00306D45346F9
:102CE0002146179A039800F0A9F90544002706E049
:102CF00001A85246C05D179990476D1C7F1C4F4537
:102D0000F6DBE0030CD553462146179A039800F0F2
:102D100095F9054404E030205246179990476D1C00
:102D20000099481E00900029F5DC08E002980299FD
:102D300052460078491C0291179990476D1CBBF1CF
:102D40000001ABF1010BF1DC5BE100F065F905443A
:102D5000761C307800287FF40DAE19B02846BDE807
:102D6000F08F000009280100303132333435363716
:102D700038396162636465660000000030313233C7
:102D80003435363738394142434445460000000067
:102D9000600700D4062708F1070020F00700F0E8DC
:102DA0000223804603F0004C5FEA0C0001D097A09C
:102DB00009E0200501D596A005E0E00701D095A027
:102DC00001E0AFF24C001390307823F00043652807
:102DD0000CD006DC452809D046281DD047287FD1D5
:102DE0003BE0662818D067287AD136E00021112F01
:102DF00001DB112000E0781CCDE9000104A90CA83A
:102E0000FFF7E6FCDDE90D010C9A4FF0000B07F12E
:102E10000109109200914EE04FF000400097CDE97B
:102E2000011004A90CA8FFF7D3FCDDE90D020C9BEF
:102E30000F994FF0000B91461093009211B9791C35
:102E400000EB0109B7EB090003D4C0F1FF3B07F128
:102E50000109A9EB0700019042E0012F00DA0127E8
:102E60000021112F01DD112000E03846CDE90001DD
:102E700004A90CA8FFF7ACFCDDE90D010C9A009148
:102E80004FF0000BB946109221070FD4009A4A4523
:102E900003DA914601E0A9F10109B9F1010F05DD5D
:102EA000109AA9F10101515C3029F4D0B84202DA3C
:102EB00010F1040F03DA0121CDE9011010E0002820
:102EC00003DC8344A9EB000102E0411C494500DD1D
:102ED0008946A0EB0B00401C01904FF0004002908F
:102EE000200705D40198484502DB4FF0FF300190E0
:102EF00000208DF84B0002980DF14B07B0F1004F08
:102F000025D002200C902B200D90029800280CDA7E
:102F1000404202902D200D9007E00A210298FDF713
:102F20007BFC3031029007F8011D0C99481E0C9073
:102F30000029F2DC02980028EFD1791E0D98087064
:102F4000307800F0200040F0450007F8020D11A88D
:102F5000C01BC01D02901398007800B1012000EB47
:102F60000901019801EBE071029801440398401AAD
:102F7000401E0390E00306D453462146179A039857
:102F800000F05CF805441398007818B15246179980
:102F900090476D1CE00323D553462146179A0398AA
:102FA00000F04CF805441BE0BBF1000F07DB009874
:102FB000584504DD1098179910F80B0001E0179997
:102FC00030205246904701980BF1010B401E05F14D
:102FD0000105019004D12E205246179990476D1C8F
:102FE000B9F10001A9F10109DEDC05E017F8010BD8
:102FF0005246179990476D1C0299481E029000296D
:10300000F4DC53462146179A03989EE62D000000F3
:103010002B000000200000002DE9F04104460025AF
:103020001E461746880404D405E039462020B047E0
:103030006D1C641EF9D52846BDE8F0812DE9F041EC
:10304000044600251E469046C80301D5302700E0FF
:103050002027880404D505E041463846B0476D1C5A
:10306000641EF9D52846BDE8F0810A68531C0B6040
:1030700010707047014609B1086808B90020704710
:1030800019B1D1E90120904201D30846F7E702E0E7
:103090008868401C886041B1D1E90120904204D287
:1030A0008A680868805C2028F2DDD1E9012090421E
:1030B00002D18868401E88600846E0E770B5044683
:1030C000002522E02568A08900F4807020B9A0685E
:1030D00010B1A068FFF7F2FFA08900F4807028B952
:1030E000206918B10A4A206951688847A08900F40C
:1030F000007028B9206A18B1054A206A51688847CB
:1031000003484168204688472C46002CDAD170BD20
:103110002C000020024800680149496808447047B3
:103120002400002070B504460D46002229462046A2
:1031300000F0DCFA70BD70B504462820216888478D
:1031400005461DB128212846FDF70DF8284670BD1B
:1031500010B5044600221146204600F06BF810BD61
:103160002DE9F0478AB004460E46154698461C21C4
:1031700003A8FCF7F8FF002700202C4908604860EE
:1031800004B106B932E00394049600200590284A61
:1031900007CA07AB07C32648FFF7CDFF074607B9A5
:1031A00024E003A801F04AFC8246FFF763FF814652
:1031B0004946384601F06EFB00B917E0B8F1000F40
:1031C0000BD003A8FFF756FFDDE90410884203D2B5
:1031D00005990398405C00B108E01DB1059903987A
:1031E0000844286038460AB0BDE8F08717B1384671
:1031F000FFF764FFC4B1019400200290DDE90410E0
:10320000884202D20598029004E0049810B1049814
:10321000401E02901DB1DDE9010108442860034809
:10322000DDE9011206C000BF0020DCE72400002019
:103230002C0000202DE9F04104460D46164614B935
:103240000020BDE8F0812046FCF7AAFF471C33466A
:103250002A4639462046FFF783FFF2E770B5044659
:103260000D4604B10DB9012070BDAC4201D1002062
:10327000FAE705E0207808B90020F5E7641C6D1C2A
:103280002078FCF751FF06462878FCF74DFF864270
:10329000F0D02078FCF748FF06462878FCF744FF7A
:1032A000301AE1E70146114A12884A434FF0E02301
:1032B0005A6100229A611A46126942F001021A61AB
:1032C00000BF4FF0E022106900F001021AB100F4D3
:1032D0008032002AF5D04FF0E022126922F001027C
:1032E0004FF0E0231A6100229A6170471400002019
:1032F0000146114A12784A434FF0E0235A610022F6
:103300009A611A46126942F001021A6100BF4FF039
:10331000E022106900F001021AB100F48032002AA4
:10332000F5D04FF0E022126922F001024FF0E023C5
:103330001A6100229A6170471200002010B507A0A0
:1033400000F09EF942F2107106A000F065F910B18C
:103350004FF0FF3010BD0020FCE7000041540D0A83
:10336000000000004F4B000010B50AA000F088F9E3
:1033700042F210710BA000F04FF940B142F210710F
:103380000BA000F049F910B14FF0FF3010BD002044
:10339000FCE7000041542B434950535441545553CA
:1033A0000D0A00005354415455533A3300000000B5
:1033B0004F4B000070B505460C461EA000F060F9AA
:1033C0004FF47A7120A000F027F910B14FF0FF30D0
:1033D00070BD1EA000F054F94FF47A711AA000F0ED
:1033E0001BF910B16FF00100F2E71CA000F048F9E2
:1033F0001EA000F045F9284600F042F91BA000F09D
:103400003FF91BA000F03CF918A000F039F9204664
:1034100000F036F915A000F033F916A000F030F9ED
:1034200000BF41F2883114A000F0F6F80028F8D16E
:1034300000BFCDE741542B43574D4F44455F4355A3
:10344000523D310D0A0000004F4B000041542B4308
:1034500049504D55583D300D0A00000041542B4352
:10346000574A41505F4355523D0000002200000082
:103470002C0000000D0A00005749464920474F54D0
:10348000204950007FB505460C46164600200090A6
:103490000190029003901CA000F0F2F81EA000F032
:1034A000EFF8284600F0ECF81BA000F0E9F81BA0AC
:1034B00000F0E6F818A000F0E3F8204600F0E0F88D
:1034C00015A000F0DDF815A000F0DAF8324614A1DE
:1034D0006846FFF703F9684600F0D2F811A000F043
:1034E000CFF841F2883110A000F096F848B141F2CF
:1034F00088310FA000F090F818B14FF0FF3004B001
:1035000070BD0020FBE7000041542B434950535449
:103510004152543D00000000220000002C00000039
:10352000256400000D0A0000434F4E4E45435400F1
:103530004F4B000010B504461CB109A000F0A0F8E4
:1035400002E009A000F09CF841F2883108A000F0E8
:1035500063F810B14FF0FF3010BD0020FCE7000011
:10356000415445310D0A0000415445300D0A000018
:103570004F4B000010B516A000F082F841F28831E0
:1035800017A000F049F810B14FF0FF3010BD4FF414
:103590007A70FFF787FE4FF47A70FFF783FE11A071
:1035A00000F06EF841F288310DA000F035F810B14E
:1035B0006FF00100EAE74FF47A70FFF773FE4FF403
:1035C0007A70FFF76FFE01200A4908600020DDE7EE
:1035D00041542B4349504D4F44453D310D0A0000A5
:1035E0004F4B000041542B43495053454E440D0A64
:1035F000000000001800002010B505A000F040F801
:103600004FF47A70FFF74EFE00200249086010BDAB
:103610002B2B2B00180000202DE9F04105460C460D
:103620002E460A4F03E00120FFF73CFE641E3146A0
:103630003846FCF7A3FD08B9002CF4D114B10020E2
:10364000BDE8F0814FF0FF30FAE700007004002081
:1036500010B507A000F014F842F2107107A0FFF7B0
:10366000DBFF10B14FF0FF3010BD0020FCE7000081
:1036700041542B5253540D0A000000004F4B0000E0
:1036800010B504464FF400710548FCF76CFD0020AE
:103690000449086021460448FEF7D7FF10BD00002A
:1036A000700400200C0000200048004070B5044663
:1036B0000D462A4621460248FEF7AAFF70BD0000CB
:1036C0000048004070B504460D46E1B20548FEF7DB
:1036D0008CFF00BF80210348FEF7BAFE0028F9D016
:1036E000204670BD003801402E2070472DE9F04182
:1036F00005460E461746002405B116B90020BDE860
:10370000F081AC685FB100E024688CB1206A78B1C8
:103710003046216AFCF74BFD0028F5D108E000E0B7
:1037200024682CB13046216AFFF798FD0028F7D1B4
:103730000CB1206A08B90020E1E72046DFE700006D
:103740002DE9F0410B3020F00706104D19E02068FC
:10375000B04215D3B0420AD9871B201DD4F804808B
:10376000FCF7E8FCA019C0E90078286004E0606874
:103770002860201DFCF7DEFC201D2660BDE8F081DE
:10378000251D2C68002CE2D10020F7E768000020FE
:10379000FEF70AFBFDF716FDFEF750FB4FF4A060A5
:1037A000FEF7CAF9FDF7FCFF4FF41650FEF7C0FC18
:1037B0004FF4E130FEF7A4FD02E02CA0FEF77EFFFF
:1037C000FDF768FC0028F8D031A0FEF777FF6420F1
:1037D000FFF768FDFEF752FFFDF7FEFFFDF7E4FB84
:1037E000FDF798FBFEF764FCFDF7A8FF00BFFDF7AF
:1037F00085FD0028FBD100BFFEF70EF80028FBD1A5
:103800002A4908602AA0FEF759FF4FF400512B48BF
:10381000FDF749FF28E000F0EDFA2948006800288C
:1038200004DD00202649086000F09AFB2548006866
:10383000022819DB00202349086000F011FC18B9A8
:1038400000201A4908600FE068231F4A1FA121A029
:10385000FEF734FF01201549086000BFFDF7DCFFCB
:103860000028FBD111490860D5E70000204572729D
:103870006F72212054204448543131204841532054
:103880004E4F20524553504F4E442E2E2E0A0000CC
:103890000D0A2054484520444854313120484153B2
:1038A00020524553504F4E4400000000B4012242C4
:1038B000696E697420656E642E0D0A000010014067
:1038C0000400002000000020C04B00086D61696EFC
:1038D0002E6300000D0A66696C652069733A202525
:1038E000732C2066756E6374696F6E2069733A205D
:1038F00025732C206C696E652069733A2025640D50
:103900000A0000002DE9F05F054600260027B046BA
:10391000B1460024AA465046FFF71AFC064666B98F
:103920003046FFF7CBFBFFF7F5FB8346594639A03E
:10393000FEF7C4FE0120BDE8F09F3CA13046FFF732
:10394000F1FB071E07D03B48FEF7B8FE3AA03A69E4
:10395000396AFEF7B3FE3BA13046FFF7E3FBB0F157
:10396000000809D03848FEF7A9FE33A0D8F8102087
:10397000D8F82010FEF7A2FE34A13046FFF7D2FBA4
:10398000B0F100093FD03348FEF798FE32A1484617
:10399000FFF7C8FB041E11D031A06269216AFEF74F
:1039A0008DFE6069C11700EB9171C1F387012F4A49
:1039B0001170104601782E48FEF725FB2DA14846D0
:1039C000FFF7B0FB041E0BD025A06269216AFEF749
:1039D00075FE606908B9012000E0002027490860F1
:1039E00027A14846FFF79EFB041E0CD01CA062696D
:1039F000216AFEF763FE606908B9012000E000203B
:103A00001E49091D08603046FFF758FB00260020BC
:103A100091E700004572726F72206265666F726591
:103A20003A205B25735D200D0A0000006D65746807
:103A30006F640000504C000825733A202573200D58
:103A40000A00000069640000084C0008706172619F
:103A50006D730000984C000877696E646F77000002
:103A600025733A202564200D0A0000002000002064
:103A7000000400406C656431000000008C8121422C
:103A80006C656432000000002DE9FE4F06460F46CB
:103A900015464FF000083046FCF782FB029038468E
:103AA000FCF77EFB01902846FCF77AFB00904FF074
:103AB0000209C24600209849086002980C3001991A
:103AC000891C01440098801C0C181021924802683F
:103AD0000068401C904B18609048815400BF04F06F
:103AE0007F08E4090CB148F080088B480168006841
:103AF000401C894A1060894800F80180002CEED1F2
:103B00000022854801680068401C834B1860834888
:103B100042540421184602680068401C18607F481F
:103B200081544D21184602680068401C18607B488B
:103B300081545121184602680068401C186077487B
:103B400081545421184602680068401C186073486C
:103B500081545422184601680068401C18606F4860
:103B600042540421184602680068401C18606B48E3
:103B70008154C222184601680068401C18606748DA
:103B800042540022184601680068401C18606348CF
:103B900042543C22184601680068401C18605F4887
:103BA00042549DF80910184602680068401C1860CD
:103BB0005A4881549DF80820184601680068401C46
:103BC00018605648425401461A4612688818314611
:103BD000029AFCF7AFFA50480068029908444E492F
:103BE0000860019800B39DF805104B480268006812
:103BF000401C494B1860494881549DF804201846E0
:103C000001680068401C18604448425401461A4646
:103C1000126888183946019AFCF78CFA3E48006809
:103C2000019908443C490860009800B39DF80110D0
:103C3000394802680068401C374B18603748815487
:103C40009DF80020184601680068401C1860334841
:103C5000425401461A46126888182946009AFCF711
:103C600069FA2D480068009908442B4908604CE027
:103C70004FF400712A48FCF776FA002029490860C1
:103C800025480168254800F0E3F940F6B83A37E0E6
:103C90000120FFF707FB22480078202830D1204878
:103CA000407802282CD11E48C07828B91EA0FEF703
:103CB00005FD0020BDE8FE8F1948C078062818D2FF
:103CC000DFE800F01703070B0F1321A0FEF7F6FC47
:103CD00013E027A0FEF7F2FC0FE02EA0FEF7EEFCAB
:103CE0000BE033A0FEF7EAFC07E039A0FEF7E6FCA4
:103CF00003E03DA0FEF7E2FC00BF00BF0020D9E7D3
:103D0000BAF10000AAF1010AC2D1B9F10000A9F18B
:103D10000109ADD1401ECDE71C000020700200203B
:103D2000700400200C000020C1ACBDD3D2D1B1BBC7
:103D3000B7FECEF1C6F7B6CBBDD3CADCA3ACC1ACDF
:103D4000BDD3C8B7C8CFB3C9B9A60D0A00000000DB
:103D5000C1ACBDD3D2D1BEDCBEF8A3ACB2BBD6A73A
:103D6000B3D6B5C4D0ADD2E9B0E6B1BE0D0A0000FD
:103D7000C1ACBDD3D2D1BEDCBEF8A3ACB2BBBACF0E
:103D8000B8F1B5C4BFCDBBA7B6CBB1EACAB6B7FBD5
:103D90000D0A0000C1ACBDD3D2D1BEDCBEF8A3ACCD
:103DA000B7FECEF1B6CBB2BBBFC9D3C30D0A00007C
:103DB000C1ACBDD3D2D1BEDCBEF8A3ACCEDED0A7A1
:103DC000B5C4D3C3BBA7BBF2C3DCC2EB0D0A000072
:103DD000C1ACBDD3D2D1BEDCBEF8A3ACCEB4CADA7E
:103DE000C8A80D0A00000000CEB4D6AACFECD3A616
:103DF0000D0A000010B56420FFF754FA41F2883133
:103E00000DA0FFF709FC00240BE00D48005D7B28A6
:103E100005D10B490819FFF775FD00B905E0601CD5
:103E2000C4B2084800688442EFD300BF00200549AF
:103E300008600549087010BD6D6574686F64000006
:103E4000700400200C000020110000202DE9FC4728
:103E5000074688461646002001903846FCF7A0F930
:103E600000904046FCF79CF9054600203A4908605E
:103E70001EB10098001D441902E00098801C4419EE
:103E80003021354802680068401C334B18603348C5
:103E9000815400BF04F07F09E4090CB149F08009A6
:103EA0002D4801680068401C2B4A10602B4800F820
:103EB0000190002CEED19DF80110104602680068B8
:103EC000401C254B1860254881549DF80010184669
:103ED00002680068401C18602048815401461A4658
:103EE000126888183946009AFCF724F91A480068C5
:103EF0000099084418490860BEB19DF8051016489D
:103F000002680068401C144B1860144881549DF8E6
:103F10000410184602680068401C18600F4881545D
:103F2000BDF80400401C80B201900C490A4A126896
:103F300088182A464146FCF7FDF8074800682844DF
:103F40000549086008460168044800F081F8024805
:103F50000068BDE8FC8700001C0000207002002003
:103F60002DE9F04188B020212748FDF793FB4FF45D
:103F700000712648FDF785FBFDF740FC08B90120DC
:103F800000E000208046FEF78BFBC4B2052108202C
:103F9000FDF7A6FB642100FB01F7F81707EB1050B3
:103FA0000013C0F16400C5B20A210120FDF7AFFB88
:103FB000642100FB01F7F81707EB10500013C0F164
:103FC0006400C6B200200790069006A907A8FDF776
:103FD000B4F80F48007880009DF818109DF81C2058
:103FE0003346CDE90048CDE9022104902A4609492B
:103FF0000948FEF773FB0022074908A0FFF726FFD8
:1040000008B0BDE8F081000000080140000C01404C
:1040100020000020744D0008700600202F73797373
:104020002F6B306335705355543466442F77696E67
:10403000646F772F7468696E672F6576656E742F6D
:1040400070726F70657274792F706F7374000000F6
:1040500070B505460C46E1B22846FFF727FB70BD58
:1040600038B519A0006800900224002521E0022143
:104070006846FFF7EDFF4FF400711448FCF773F842
:1040800000201349086040F6B8350EE00120FFF724
:1040900009F90E480078D02807D10C48407820B99B
:1040A0000CA0FEF70BFB002038BD281EA5F1010572
:1040B000ECD1201EA4F10104D9D10FA0FEF7FEFA25
:1040C0004FF0FF30F0E70000C00000007004002057
:1040D0000C000020D0C4CCF8CFECD3A6C8B7C8CF12
:1040E000B3C9B9A6A3ACB7FECEF1C6F7D4DACFDF19
:1040F000A1A30D0A00000000D0C4CCF8CFECD3A6D9
:10410000C8B7C8CFCAA7B0DCA3ACB7FECEF1C6F71C
:10411000C0EBCFDF0D0A00002DE9F84F06460F4631
:1041200015464FF000084FF00209C2463046FCF732
:1041300037F800900098001D0DB1012100E000212A
:10414000441800205D4908604DB182215B48026837
:104150000068401C594B18605948815408E0A2225D
:10416000564801680068401C544B1860544842543B
:1041700000BF04F07F08E4090CB148F080084F4804
:1041800001680068401C4D4A10604D4800F80180ED
:10419000002CEED10022494801680068401C474BC2
:1041A0001860474842540121184602680068401CC4
:1041B0001860434881549DF8011018460268006851
:1041C000401C18603E4881549DF800201846016844
:1041D0000068401C18603A48425401461A4612686A
:1041E00088183146009AFBF7A5FF3448006800990B
:1041F0000844324908603DB1084601680068401C27
:104200002E4A10602E4847544BE000202D4908608C
:104210004FF400712C48FBF7A6FF28480168284896
:10422000FFF716FF40F6B83A36E00120FFF73AF8FC
:104230002548007890282FD124A0FEF73FFA224885
:10424000407803280ED12048817825A0FEF736FA61
:104250001D48C1782BA0FEF731FA1B48017932A026
:10426000FEF72CFA18484078022809D116488178C0
:104270001BA0FEF723FA1448C17822A0FEF71EFA0D
:1042800011484078012804D10F48817814A0FEF726
:1042900015FA0020BDE8F88FBAF10000AAF1010A72
:1042A000C3D1B9F10000A9F10109AED1B9F1000FF4
:1042B00000D0EFE74FF0FF30ECE700001C000020DB
:1042C000700200200C00002070040020B6A9D4C4A5
:1042D000D6F7CCE2C8B7C8CFB3C9B9A60D0A00005B
:1042E00053756363657373202D204D6178696D7517
:1042F0006D20516F53203020697320253032580DC6
:104300000A00000053756363657373202D204D61AF
:1043100078696D756D20516F5320322069732025A7
:104320003032580D0A0000004661696C75726520D4
:10433000697320253032580D0A0000002DE9F04144
:1043400080460C4600250027E068B0F57A7F02D34E
:104350000020BDE8F081E068401CE060A1682068B2
:10436000405C5B2800D05FE0A068401CA060204655
:10437000FEF780FE4CB1D4E90110884205D2A16855
:104380002068405C5D2800D13FE01CB1D4E90110F9
:10439000884203D3A068401EA06045E0A068401E8C
:1043A000A06000BF04F11000FEF7C5FE064606B986
:1043B0003AE015B93546374602E03E607760374649
:1043C000A068401CA0602046FEF754FE21463846F7
:1043D00000F060FA00B927E02046FEF74BFE44B13A
:1043E000D4E90110884204D2A1682068405C2C28DE
:1043F000D8D044B1D4E90110884204D2A168206821
:10440000405C5D2800D00FE000BFE068401EE06027
:1044100005B16F602020C8F80C00C8F80850A068EB
:10442000401CA060012094E715B12846FEF746FE27
:1044300000208EE702460023002100BF23E0505CED
:10444000302806DB505C392803DC505C30380344EC
:1044500015E0505C412806DB505C462803DC505CCC
:10446000373803440BE0505C612806DB505C66285B
:1044700003DC505C5738034401E0002070470329F7
:1044800000D21B01491C0429D9D31846F6E70000C5
:104490002DE9F04391B080460C4600BF00201090FB
:1044A000FFF722F9814600250CB1206818B90020D9
:1044B00011B0BDE8F08300253CE0A1682068084405
:1044C000405D342820D00ADCA0F12B0009282ED230
:1044D000DFE800F0202D212A2D16171819003828A2
:1044E00016D006DC352810D036280FD037281ED13C
:1044F0000DE039280DD045280FD0652817D10BE0E5
:1045000000BF00BF00BF00BF00BF00BF00BF00BFB3
:1045100000BF00BF00BF00BF00BFA1682068084403
:10452000405D0DF8050003E00DF8059000E00AE09D
:1045300000BF6D1C3F2D05D224B1A06828446168DE
:104540008842BAD300BF00200DF8050010A96846C4
:1045500000F092FA06460F4668461099884201D14B
:104560000020A5E7C8E90667144A154B30463946CE
:10457000FCF73AF904D86FF00040C8F8140011E0D5
:104580000022104B30463946FCF716F904D84FF09C
:104590000040C8F8140005E030463946FCF7EDF855
:1045A000C8F814000820C8F80C00A0686A461099E2
:1045B000891A0844A06001207AE700000000C0FFCB
:1045C000FFFFDF410000E0C12DE9F04180460C46CD
:1045D00000260025E068B0F57A7F02D30020BDE810
:1045E000F081E068401CE06044B1D4E901108842E9
:1045F00004D2A1682068405C7B2800D07DE0A068E0
:10460000401CA0602046FEF735FD4CB1D4E90110F6
:10461000884205D2A1682068405C7D2800D15DE019
:104620001CB1D4E90110884203D3A068401EA060E9
:1046300063E0A068401EA06000BF04F11000FEF718
:104640007AFD074607B958E016B93E463D4602E0F6
:104650002F607D603D46A068401CA0602046FEF7AC
:1046600009FD2146284600F04EF800B945E02046F5
:10467000FEF700FD286928620020286144B1D4E9D2
:104680000110884204D2A1682068405C3A2800D01A
:1046900033E0A068401CA0602046FEF7EBFC2146FA
:1046A000284600F0F7F800B927E02046FEF7E2FCC4
:1046B00044B1D4E90110884204D2A1682068405C6A
:1046C0002C28BAD044B1D4E90110884204D2A168A0
:1046D0002068405C7D2800D00FE000BFE068401EED
:1046E000E06006B175604020C8F80C00C8F80860AA
:1046F000A068401CA060012071E716B13046FEF7AB
:10470000DDFC00206BE72DE9F84F80460C46A168E0
:1047100020680844461CA16820680844451C002005
:1047200000900027A1682068405C222800D0A6E005
:104730004FF0000AD1460DE028785C2809D1681CAA
:104740002168401A6168884200D398E009F10109A4
:104750006D1C6D1C2068281A6168884202D2287876
:104760002228E9D12068281A6168884202D2287874
:10477000222800D083E0A16820680844281AA0EB12
:10478000090A0AF1010021698847074607B976E05E
:10479000009761E030785C2807D016F8010B00998B
:1047A00008700098401C009056E04FF00209A81BCA
:1047B000012800DA63E07078662819D008DC222826
:1047C00032D02F2832D05C282FD0622840D108E088
:1047D0006E2814D0722819D074281ED0752837D1AD
:1047E0002BE00820009908700098401C009030E0F1
:1047F0000C20009908700098401C009029E00A20C5
:10480000009908700098401C009022E00D2000994B
:1048100008700098401C00901BE009200099087067
:104820000098401C009014E000BF00BF7078009911
:1048300008700098401C00900BE06A4629463046FC
:1048400000F028F98146B9F1000F00D117E000E02F
:1048500015E000BF4E4400BFAE429BD3002000993C
:1048600008701020C8F80C00C8F810702068281ACA
:10487000A060A068401CA0600120BDE8F88F17B1BF
:1048800038466169884716B12068301AA060002058
:10489000F3E7000070B505460C460CB1206808B976
:1048A000002070BD9CB1A068001D616888420ED8D0
:1048B000A2682168881804223FA1FBF786FC30B962
:1048C0000420E860A068001DA0600120E9E79CB119
:1048D000A068401D616888420ED8A26821688818C7
:1048E000052237A1FBF771FC30B90120E860A06810
:1048F000401DA0600120D4E7ACB1A068001D616834
:10490000884210D8A2682168881804222EA1FBF7DB
:104910005CFC40B90220E86001206861A068001DCD
:10492000A0600120BDE76CB1D4E90110884209D232
:10493000A1682068405C222804D121462846FFF760
:10494000E2FEAEE7BCB1D4E90110884213D2A168FF
:104950002068405C2D2809D0A1682068405C302880
:1049600009DBA1682068405C392804DC2146284620
:10497000FFF78EFD95E76CB1D4E90110884209D2AA
:10498000A1682068405C5B2804D121462846FFF7D7
:10499000D5FC86E76CB1D4E90110884209D2A16840
:1049A0002068405C7B2804D121462846FFF70CFE96
:1049B00077E7002075E700006E756C6C0000000062
:1049C00066616C736500000074727565000000001C
:1049D0002DE9F04704008A4616D054F8047CD4F838
:1049E00000903E1F564500D956462046FDF78AFEE8
:1049F00005468846324621465046FEF7A1FE40B1A4
:104A0000C0F80090BDE8F087BDE8F0470846FDF724
:104A1000A7BE44E9017955B129686A18211F8A4265
:104A200002D9611B091F2960C5F80480EAE7024A20
:104A3000C2F80080E6E700006800002010B50446D8
:104A40001CB1206808B1A06808B1002010BD7CB17D
:104A5000A068001D616888420AD2A268216888188F
:104A6000032204A1FBF7B1FB10B9A068C01CA06031
:104A70002046EBE7EFBBBF0000B583B00A4600213C
:104A8000CDE9001101466846FBF779FFDDE9000139
:104A900003B000BD2DE9FF5F80468946154600241E
:104AA0000026C24600200390834602900190A9EBA5
:104AB0000A00062800DA81E00AF10200FFF7BAFCDA
:104AC0000646B6F55C4F03D3B6F5604F00D275E0ED
:104AD000B6F5584F29D3B6F55C4F26D20AF1060732
:104AE000002000900C200290A9EB0700062800DAB5
:104AF00064E038785C2802D17878752800D05DE0D1
:104B0000B81CFFF797FC00900098B0F55C4F03D3FA
:104B10000098B0F5604F00D350E0C6F3090100984B
:104B200061F39F2000F5803402E0062002903446B5
:104B3000802C02D20120039018E0B4F5006F04D25B
:104B400002200390C020019010E0B4F5803F04D211
:104B500003200390E020019008E0B4F5881F04D200
:104B600004200390F020019000E027E00398401E0D
:104B700000F0FF0B0BE004F0BF0040F0800029685C
:104B800001F80B00A409ABF1010000F0FF0BBBF131
:104B9000000FF0DC0398012804DD01982043296808
:104BA000087003E004F07F00296808702968039802
:104BB00008442860029804B0BDE8F09F0020FAE79E
:104BC0006D61696E00DDDDDDDDDCBBBBDDDDDDDD06
:104BD000DDDDDDDDDD9888888888888888777777CF
:104BE00077778888888555555666666666666666F0
:104BF0006666688888833333322222222222222268
:104C0000222228888D0000002D2D2D2D2D2D2D2DBB
:104C10002D2D2D2D2D2D2D2D2D2D2D2D2D2D2D2DC4
:104C20002D2D2D2D2D2D2D2D2D2D2D69642D2D2D41
:104C30002D2D2D2D2D2D2D2D2D2D2D2D2D2D2D2DA4
:104C40002D2D2D2D2D2D2D2D2D2D2D0D0A0000005E
:104C50002D2D2D2D2D2D2D2D2D2D2D2D2D2D2D2D84
:104C60002D2D2D2D2D2D2D2D2D2D2D2D2D2D2D2D74
:104C70002D6D6574686F642D2D2D2D2D2D2D2D2DF1
:104C80002D2D2D2D2D2D2D2D2D2D2D2D2D2D2D2D54
:104C90002D2D2D0D0A0000002D2D2D2D2D2D2D2D0E
:104CA0002D2D2D2D2D2D2D2D2D2D2D2D2D2D2D2D34
:104CB0002D2D2D2D2D2D2D2D2D706172616D732DAE
:104CC0002D2D2D2D2D2D2D2D2D2D2D2D2D2D2D2D14
:104CD0002D2D2D2D2D2D2D2D2D2D2D0D0A000000CE
:104CE00062393837353934663365363132343166B6
:104CF0006638646332623961626163653261666439
:104D0000636665663461323135383262623132321F
:104D10003832613863353961363064396133336430
:104D2000000000006B306335705355543466442ED8
:104D300077696E646F777C7365637572656D6F6498
:104D4000653D322C7369676E6D6574686F643D688C
:104D50006D61637368613235362C74696D65737487
:104D6000616D703D3137313033333432313836355F
:104D7000367C00007B226D6574686F64223A227471
:104D800068696E672E736572766963652E70726FDF
:104D900070657274792E736574222C226964223ACC
:104DA0002231353936383730383435222C2270618B
:104DB00072616D73223A7B0909226D71325F7369EA
:104DC0007A65223A25642C09092277617465725F3D
:104DD00073697A65223A25642C0909227761746522
:104DE00072223A25642C0909226D7132223A256417
:104DF0002C09092274656D70223A25642C09092258
:104E000068756D69223A25642C09092277696E64F8
:104E10006F77223A25642C09097D2C2276657273FE
:104E2000696F6E223A22312E302E30227D00000032
:104E3000504E00080000002070000000B02700085D
:104E4000C04E000870000020103E0000C02700087F
:104E50000000000000000000000000000000000052
:104E60000000000000000000000000000000000042
:104E700000000000000000000000000061270008A2
:104E800005270008D14900080000000000000000CC
:104E900001020304010203040607080902040608CC
:104EA00000A24A0400000000000000000102030408
:104EB00006070809000000000000000000000000D4
:04000005080000ED02
:00000001FF
