:020000040800F2
:10000000B84E0020050100080D0100080F0100088E
:10001000110100081301000815010008000000008C
:1000200000000000000000000000000017010008B0
:1000300019010008000000001B0100081D01000854
:100040001F0100081F0100081F01000821260008E9
:100050001F0100081F0100081F010008DD11000832
:100060001F0100083D1200089D1200081F01000832
:100070001F0100081F0100081F0100081F010008E0
:100080001F0100081F0100081F0100081F010008D0
:100090001F0100081F0100081F0100081F010008C0
:1000A0001F0100081F0100081F0100081F010008B0
:1000B0001F0100081F0100081F0100081F010008A0
:1000C0001F0100081F0100081F0100081F01000890
:1000D0001F010008F92D00088D2E0008C92F000807
:1000E0001F0100081F0100081F010008DFF810D0E1
:1000F00000F0D6FD00480047E5430008AFF300805C
:10010000B84E00200648804706480047FEE7FEE755
:10011000FEE7FEE7FEE7FEE7FEE7FEE7FEE7FEE7B7
:10012000B1290008ED000008A0F14101192900D80B
:100130002030704740EA01039B0703D009E008C95B
:10014000121F08C0042AFAD203E011F8013B00F89C
:10015000013B521EF9D27047D2B201E000F8012BE8
:10016000491EFBD270470022F6E710B513460A4637
:1001700004461946FFF7F0FF204610BD30B505468E
:100180002A460B4612F8010B13F8014B08B1A042A6
:10019000F8D01CB1002802D06D1CF1E7284630BD14
:1001A00010B5044604E00B7800F8013B03B1491C8C
:1001B000521EF8D2204610BD421C10F8011B002927
:1001C000FBD1801A704710B5002200E0521C835CFE
:1001D0008C5CA34201D1002BF8D1D8B2E1B2401A15
:1001E00010BD30B505460020034600E05B1C93427D
:1001F00005D2EC5CC85C201A01D1002CF6D130BDD0
:100200002DE9FF4F087883B09946FF2805D0491C97
:100210002D2804D00024002008E000200BE0012459
:10022000F9E700EB800003EB4000491C0B78FF2B43
:10023000F7D104B1404200230293147819461D46B9
:100240002D2C01D02B2C04D1521C2D2C13D000248A
:100250000294AA461478FF2C0FD00A25A3FB057838
:1002600001FB05814FF0000C03FB0C11521CE3193C
:100270004AEB0101EEE70124EAE7814453EA010079
:1002800002D019F5C87F06DA03980021C0E90011F1
:1002900007B0BDE8F08F0025AE4E2F46DFF8B882DC
:1002A000184600F0BDFCCDE90001B9F1000002DA0A
:1002B000C9F1000400E004460023A74A1AEB030B2F
:1002C00042EB045A12E0E00707D02A46334638468C
:1002D000414600F0F9F9074688462A46334610465B
:1002E000194600F0F1F905460E466410002CEAD1DB
:1002F000DDE90001B9F1000F5A46534606DA00F075
:1003000020FC3A46434600F01CFC05E000F0DCF916
:100310003A46434600F0D8F9029A0AB181F000410A
:10032000039AC2E90001B3E72DE9FF4F1F468DB0E4
:10033000D7E901464FF0FF382E2045464FF000091F
:100340000B90B9696D1C0E988847396A82468847B8
:100350000028F6D1BAF1FF3F0AD024F4D064002E71
:1003600011DDBAF12B0F08D0BAF12D0F0BD102E03D
:10037000404611B08DE744F48064B9696D1C0E9855
:1003800088478246761E6946600501D52D2000E02B
:100390002B208DF8000001F1010B0DF1200809E080
:1003A000B9696D1C0E98884782460F9844F4007412
:1003B000761E0560002E02DDBAF1300FF0D00B99E9
:1003C0008A453ED144F0800406E00F99681CA9F1EB
:1003D000010944F400740860B9696D1C761E0E981A
:1003E000884782463028F0D02BE00B998A4505D10A
:1003F000200603D444F08004761E18E0504603F033
:10040000A9F808B30DF11301761E44F400748B456E
:1004100008D2AAF130000BF8010B200607D5A9F18C
:10042000010003E0200602D409F101008146A00585
:1004300002D50F99681C0860B9696D1C0E98884731
:100440008246002ED1DC53E0002E51DDBAF1650F5B
:1004500002D0BAF1450F4BD1A00549D5B9696D1C41
:1004600024F44074761E0E9888478246002E0CDDD8
:100470002B2804D0BAF12D0F07D144F48074B96948
:100480006D1C0E9888478246761EE00501D52D2109
:1004900000E02B2108F8011BCDF82C8021E00DF1A4
:1004A0002901761E44F4007488450CD2AAF130006C
:1004B00010F0FF0088F8000002D10B99884509D997
:1004C00008F1010806E0E00501D5244801E042F208
:1004D0000F708146B9696D1C0E98884782460F9847
:1004E0000560002E04DD504603F034F80028D6D114
:1004F000F9690E988847FF208BF8000088F8000003
:100500000020069007904B466A4608A906A8FFF708
:1005100077FEA00502D46FF001002AE714F0240F43
:100520000AD0E00714D1DDE906123868031D3B60EC
:100530000068C0E900120BE0DDE9060100F094FB61
:100540000146E00704D13868021D3A600068016086
:1005500028460EE7000014400000F03FF1D8FFFFEE
:1005600070B5064602F0CAFE046805460A2200215C
:10057000304600F051FA2C6070BD2DE9FE4F8046E8
:1005800081EA0300C00F0C46009021F0004123F0E7
:100590000045B8EB0200A94105D2404621469046ED
:1005A0001C460B46024623F00040104347D0270D5F
:1005B000C7F30A00C3F30A510290401A0190402881
:1005C0006BDAC3F3130040F4801B0098924620B10D
:1005D0000023D2EB030A63EB0B0B01985946C0F1E1
:1005E0004002504600F079F906460D4650465946FD
:1005F000019A00F091F910EB08006141002487EAAC
:10060000115284EAE7731A4340D0009A62B3019A08
:10061000012A4FEA075215DC001B61EB02014FF083
:10062000004202EA0752CDE90042001C41F5801168
:1006300032462B4600F037FA03B0BDE8F08F404653
:100640002146F9E7001B61EB0201001C41F5801314
:1006500000185B412018A2F5001747EB030140EAA0
:10066000D570B6196D4111E06D084FEA360645EABE
:10067000C0754FEA0752001B61EB0201001C41F5F7
:10068000801149084FEA30000019514132462B468B
:1006900003B0BDE8F04F00F0F7B900980122400028
:1006A0000023D0EB020263EBE073009821464FEA8F
:1006B000E074B8EB000061EB0401E9E783F000436C
:1006C0005BE781F0004158E72DE9FE4F81EA030422
:1006D00004F0004421F0004100944FF0000B23F09F
:1006E000004350EA01045ED052EA03045BD0C3F336
:1006F0000A54C1F30A552C44A4F2F3340194A0FB2C
:100700000254C1F3130141F48011C3F3130343F402
:10071000801301FB024400FB034E840A970A44EA5B
:10072000815447EA8357A4FB076802958D0A05FBAD
:1007300007854FEA932C04FB0C542705029D4FEAD2
:10074000065847EA1637B5EB08056EEB070C870E1F
:10075000920E47EA811742EA8312A7FB0201B6EB29
:100760000B0164EB00042B0D43EA0C335E1844EBE1
:100770001C50DA465146E7FB0201C5F313044FEA69
:100780000B3343EA14534FEA0432019C43EA060355
:10079000A4F10C040294009CCDE900B400F083F9AC
:1007A00003B0BDE8F08F00200146F9E770B5C1F352
:1007B0000A5201F000450024C1F3130140F2FF3357
:1007C00041F480119A4201DA002070BD40F23343B7
:1007D0009A42A2F2334203DC524200F08DF800E06C
:1007E00090402C43F1D0404270BD000030B5041E53
:1007F00071F1000404DB4FF00044404264EB01015E
:10080000141E73F1000405DB1C464FF000435242F6
:1008100063EB04038B4208BF824230BD30B5041E37
:1008200071F1000404DB4FF00044404264EB01012D
:10083000141E73F1000405DB1C464FF000435242C6
:1008400063EB0403994208BF904230BD30B50B46BC
:10085000014600202022012409E021FA02F59D42F0
:1008600005D303FA02F5491B04FA02F52844151EC4
:10087000A2F10102F1DC30BD2DE9F05F0546002058
:1008800092469B4688460646814640241BE0284601
:1008900041464746224600F02FF853465A46C01AB2
:1008A000914110D311461846224600F016F82D1A31
:1008B00067EB01084F4622460120002100F00DF8A9
:1008C00017EB00094E41201EA4F10104DFDC48466D
:1008D00031462A464346BDE8F09F202A04DB203AF1
:1008E00000FA02F1002070479140C2F1200320FA83
:1008F00003F3194390407047202A04DB203A21FA81
:1009000002F00021704721FA02F3D040C2F1200228
:100910009140084319467047202A06DBCB17203A3E
:1009200041FA02F043EAE07306E041FA02F3D040F4
:10093000C2F120029140084319467047426842B113
:10094000016811F8013B23B1521EC0E9001218469C
:1009500070470121C160881E704742685AB1C36860
:10096000016843B983688B4205D0491E521CC0E917
:100970000012002070474FF0FF3070470FB4002383
:1009800000B589B00CA900910B996FF00042CB60C3
:100990001E4B06931E4B07930423CDE901321D4ADB
:1009A000089202466B460020FFF7BEFC09B05DF8D6
:1009B00014FB70B586B006464FF0FF300091CDE9CC
:1009C0000101002015460C4604903246694604A8F1
:1009D000FFF7D4FF02460498211825B108B1084654
:1009E00000E020462860049800280DD0002A02DD8F
:1009F0000098884208D0081B0094CDE901043246D3
:100A0000694604A8FFF7BAFF06B070BD3D090008AB
:100A10005B090008CD0C00082DE9F04791460F4610
:100A200080460446002614F8015B2DB100F04AF917
:100A30000068405DC007F6D12B2D02D02D2D18D0B7
:100A4000641E4A463946204600F049F927B1396804
:100A5000A14201D1C7F8008071054FF002040BD507
:100A60004042002803DD02F049FC0460A007BDE815
:100A7000F08746F48066E4E70028F8DA02F03EFCEE
:100A800004606FF00040F2E710B5141E73F100042B
:100A900008DA401C41F1000192185B411A4301D170
:100AA00020F0010010BD2DE9F04D92469B4611B19A
:100AB000B1FA81F202E0B0FA80F220329046FFF7FC
:100AC0000CFF04460F4640EA0A0041EA0B01534678
:100AD0005A46084313D0114653EA010019D0C8F111
:100AE00040025046FFF708FF05460E46504659465D
:100AF0004246FFF7F2FE084305D0012004E02046FD
:100B00003946BDE8F08D0020054346EAE0762C43E7
:100B100037430A986305E40AA0EB08000022FD0AA7
:100B200044EA47540A3002D500200146E9E70105AE
:100B300010196941DDE9084500196941BDE8F04D2A
:100B4000A2E72DE9F04D81EA030404F0004B21F007
:100B5000004514464FF0000A23F0004150EA050218
:100B600020D054EA01021DD0C5F30A570246C5F34E
:100B70001303C1F31300C1F30A5640F4801543F484
:100B80008013A7EB0608101BD64608F2FD3873EB5E
:100B9000050002D308F1010801E092185B41B8F1A9
:100BA000000F03DA00200146BDE8F08D00204FF46D
:100BB0008011064684460EE0171B73EB050705D32C
:100BC000121B63EB050306434CEA010C49084FEA8C
:100BD000300092185B4150EA0107EDD152EA030060
:100BE00012D082EA040083EA0501084305D0101BF5
:100BF000AB4106D20122002306E000224FF0004361
:100C000002E06FF0010253101AEB06004CEB0851A2
:100C100010EB0A0041EB0B01BDE8F04DFFF734BFCC
:100C20000EB540F2334202920022CDE90022134673
:100C3000FFF739FF03B000BDC1F30A52C1F313013E
:100C400040F2FF3341F480119A4202DA002001465B
:100C5000704740F233439A42A2F2334202DC5242DE
:100C6000FFF74ABEFFF739BE01F0004330B421F070
:100C7000004150EA010206D00A0DA2F56072C1F3EC
:100C80001301002A02DC30BC00207047440F44EA04
:100C9000C104C100E01830BC00EBC25000F06EB8D7
:100CA000064C074D06E0E06840F0010394E80700B9
:100CB00098471034AC42F6D3FFF71CFA005D0008E9
:100CC000205D0008004870470C5B000810B5044622
:100CD000FFF7F8FF0068005D00F0010010BD2DE98E
:100CE000F05F82460078002715468B460AF1010422
:100CF000B946302801D09DB113E014F8010B01274B
:100D0000782803D0582801D045B10AE00DB1102D44
:100D100007D10027102514F8010B02E0082500E098
:100D20000A250026B0460EE005FB080005FB06F18B
:100D3000012701EB10461FFA80F8B6F5803F00D37B
:100D4000B94614F8010B294600F04FF80028EBDAF9
:100D5000BBF1000F05D00FB1641E00E05446CBF884
:100D60000040B9F1000F06D002F0C8FA022101607C
:100D7000C81EBDE8F09F48EA0640FAE70029A8BF70
:100D80007047401C490008BF20F00100704710B4B4
:100D9000B0FA80FC00FA0CF050EA010404BF10BC69
:100DA000704749B1CCF1200421FA04F411FA0CF196
:100DB00018BF012121430843A3EB0C01CB1D4FEACF
:100DC00000614FEA102042BF002010BC704700EBCA
:100DD000C35010440029A4BF10BC7047401C4900F8
:100DE00008BF20F0010010BC70473A2800D230380C
:100DF00020F02002412A01D3A2F13700884201D31A
:100E00004FF0FF307047000010B504460723012261
:100E10002146094800F096F80121074800F0F3F850
:100E200000BF0221044800F051F80028F9D0024820
:100E300000F048F810BD00000028014021B1826890
:100E400042F00102826003E0826822F001028260C7
:100E50007047000010B504461248844208D10121B1
:100E6000401501F01BF90021601501F017F917E09A
:100E70000D48844208D10121001501F00FF900212D
:100E8000201501F00BF90BE00848844208D101213C
:100E9000C80301F003F900214FF4004001F0FEF80F
:100EA00010BD00000024014000280140003C01402A
:100EB000014600208A6802F004020AB1012000E025
:100EC000002070470146C86C80B27047024600207F
:100ED00013680B400BB1012000E000207047014671
:100EE00000208A6802F008020AB1012000E0002018
:100EF0007047000030B502460020002350680F4CB8
:100F000020400D790C6844EA052420435060906825
:100F10000B4C2040D1E902542C434D7944EA45045E
:100F200020439060D06A20F470000C7C641EE4B210
:100F3000234340EA0350D06230BD0000FFFEF0FFC3
:100F4000FDF7F1FFF0B504460D4600200021092D04
:100F500011DDE068A5F10A0606EB4607072606FA4A
:100F600007F18843A5F10A0606EB460603FA06F1E7
:100F70000843E0600CE0206905EB4507072606FA08
:100F800007F1884305EB450603FA06F108432061A3
:100F9000072A0FDA606B561E06EB86071F2606FA35
:100FA00007F18843561E06EB860605FA06F108434C
:100FB000606322E00D2A0FDA206BD61F06EB86074E
:100FC0001F2606FA07F18843D61F06EB860605FAA8
:100FD00006F10843206310E0E06AA2F10D0606EB7B
:100FE00086071F2606FA07F18843A2F10D0606EBD5
:100FF000860605FA06F10843E062F0BD816841F01B
:1010000008018160704721B1826842F4A0028260C9
:1010100003E0826822F4A00282607047816841F098
:10102000040181607047000000B587B0012188028B
:1010300001F024F80121082001F020F84FF40040CD
:1010400001F000F80120ADF8180000208DF81B0019
:1010500006A9184800F0EEFA1748FFF7FBFE00203B
:1010600001908DF808008DF809004FF4602003907E
:101070000020049001208DF8140001A90E48FFF70C
:1010800039FF01210C48FFF7D9FE0B48FFF7B6FFE7
:1010900000BF0948FFF723FF0028FAD10648FFF7F1
:1010A000BDFF00BF0448FFF703FF0028FAD107B0D7
:1010B00000BD0000000C01400028014000B587B0D1
:1010C0000121480200F0DAFF0121042000F0D6FFE0
:1010D0004FF4004000F0B6FF6020ADF8180000208B
:1010E0008DF81B0006A9184800F0A4FA1748FFF76E
:1010F000B1FE0020019001208DF808008DF8090054
:101100004FF4602003900020049002208DF814001A
:1011100001A90E48FFF7EEFE01210C48FFF78EFEF5
:101120000A48FFF76BFF00BF0848FFF7D8FE00280A
:10113000FAD10648FFF772FF00BF0448FFF7B8FE78
:101140000028FAD107B000BD00080140002401408A
:1011500010B5012000F0B2FF002000F0AFFF10BD7D
:1011600008B501460020009003480090009808440C
:1011700000900098008808BD006C004008B500226F
:101180000092044A0092009A02440092009A116070
:1011900008BD0000006C004010B56FF0040001F0C5
:1011A000F3FB0A4800680A49B0FBF1F009490870EE
:1011B0000846007800EB4001C1EBC0104FF6FF710C
:1011C00001EAC0000449088010BD00007000002042
:1011D00000127A000A0000200C00002010B5022046
:1011E00000F092F801281DD10F4908600F490968E5
:1011F000491C0E4A0846116001EBD0714910A0EB62
:10120000410119B101200A49086002E000200949A2
:1012100008600848008881B2074801F016FD0220E6
:1012200000F06CF810BD00005000002038000020D5
:1012300034000020440000200008004010B50820C1
:1012400000F062F801281DD10F4908600F490968B4
:10125000491C0E4A0846116001EBD0714910A0EB01
:10126000410119B103200A49086002E00020094940
:1012700008600848008881B2074801F0EAFC0820AD
:1012800000F03CF810BD0000580000204000002095
:10129000340000204C0000200008004010B5102051
:1012A00000F032F801281DD10F4908600F49096884
:1012B000491C0E4A0846116001EBD0714910A0EBA1
:1012C000410119B102200A49086002E000200949E1
:1012D00008600848008881B2074801F0B8FC102077
:1012E00000F00CF810BD0000540000203C0000206D
:1012F0003400002048000020000800400149086038
:101300007047000014040140014600200022074BF2
:101310001B6803EA0102054B14331B680B4013B131
:101320000AB1012000E000207047000000040140E5
:10133000002123498279002A3AD00A4612680368BC
:101340009A430B461A600A1D126803689A430B1DE4
:101350001A60027911440A6803681A430A60184A3D
:101360000832126803689A43154B08331A601A1D35
:10137000126803689A43124B0C331A604279102AA0
:101380000ED11A1F126803681A430D4B08331A60F6
:101390001A1D126803681A43094B0C331A600DE0DA
:1013A0000749427911440A6803681A430A6005E054
:1013B000027911440A6803689A430A607047000082
:1013C0000004014010B502F015FF04462CB133A013
:1013D00001F070FF4FF0FF3010BD3CA001F06AFF3C
:1013E0004FF47A7002F05EFD02F030FF04462CB13B
:1013F00042A001F05FFF6FF00100EDE745A001F0B2
:1014000059FF4FF47A7002F04DFD4FF47A7002F0FC
:1014100049FD02F06DFD04462CB144A001F04AFFE5
:101420006FF00200D8E747A001F044FF4FF47A7054
:1014300002F038FD4FF47A7002F034FD002002F023
:1014400077FE04462CB145A001F034FF6FF0030095
:10145000C2E74AA001F02EFF4FF47A7002F022FD9D
:101460004FF47A7002F01EFD4CA150A002F07CFDFA
:1014700004462CB150A001F01DFF6FF00400ABE753
:1014800054A001F017FF4FF47A7002F00BFD4FF4F7
:101490007A7002F007FD00209EE700006573703847
:1014A0003236365F657869745F7472616E7370612D
:1014B00072656E745F7472616E736D697373696F58
:1014C0006E206661696C0D0A00000000657370385B
:1014D0003236365F657869745F7472616E737061FD
:1014E00072656E745F7472616E736D697373696F28
:1014F0006E20737563636573730D0A0065737038CE
:101500003236365F7265736574206661696C0D0AE8
:1015100000000000657370383236365F726573659F
:101520007420737563636573730D0A006573703897
:101530003236365F636865636B206661696C0D0ADD
:1015400000000000657370383236365F636865638B
:101550006B20737563636573730D0A006573703870
:101560003236365F656E61626C655F6563686F28F1
:101570003029206661696C0D0A00000065737038BF
:101580003236365F656E61626C655F6563686F28D1
:101590003029737563636573730D0A007A656E672E
:1015A0006C696E676C69616E670000004D617465FF
:1015B000353050726F000000657370383236365F18
:1015C000636F6E6E6563745F6170206661696C0D38
:1015D0000A000000657370383236365F636F6E6ED6
:1015E0006563745F617020737563636573730D0A5F
:1015F0000000000030B500228B071C0F0F2303FAF8
:1016000004F20B4B8C1053F824309343084C8D108C
:1016100044F8253023468C1053F824308C07240FCF
:1016200000FA04F42343024C8D1044F8253030BDF9
:10163000080001402DE9F041024600250026002067
:1016400000230024002791F803C00CF00F0591F847
:1016500003C00CF0100CBCF1000F03D091F802C0D5
:101660004CEA050591F800C0BCF1000F31D01468B8
:1016700000202BE04FF0010C0CFA00F3B1F800C091
:101680000CEA03069E4220D183004FF00F0C0CFAA7
:1016900003F7BC4305FA03FC4CEA040491F803C0C9
:1016A000BCF1280F06D14FF0010C0CFA00FCC2F877
:1016B00014C00AE091F803C0BCF1480F05D14FF007
:1016C000010C0CFA00FCC2F810C0401C0828D1D351
:1016D0001460B1F800C0BCF1FF0F34DD5468002085
:1016E0002EE000F1080C4FF0010808FA0CF3B1F8F5
:1016F00000C00CEA03069E4221D183004FF00F0C7C
:101700000CFA03F7BC4305FA03FC4CEA040491F815
:1017100003C0BCF1280F05D100F1080C08FA0CF841
:10172000C2F8148091F803C0BCF1480F07D100F152
:10173000080C4FF0010808FA0CF8C2F81080401CA1
:101740000828CED35460BDE8F0810246002093689B
:101750000B400BB1012000E0002070470246002042
:10176000D3680B400BB1012000E0002070474161BD
:1017700070472DE9F04107460C460025002608E099
:101780003846FFF741FB0544052002F08BFB701C37
:10179000C6B2A642F4DBB5FBF4F080B2BDE8F0813E
:1017A00010B590B003F0A4FB04461CB912A001F0E0
:1017B00081FD02E01AA001F07DFD40216846FEF7A0
:1017C000D2FC684603F0C2FB04465CB969461EA021
:1017D00001F070FD642002F065FB684603F016FC22
:1017E000044602E01DA001F065FD02F003FD02F0D9
:1017F0007BFC10B010BD00005B4F4B5D206E65742C
:1018000020636F6E6E6563742074696D6520736507
:101810007276657220737563636573730D0A0000D9
:101820005B6572726F725D206E657420636F6E6EA1
:101830006563742074696D652073657276657220C6
:101840006661696C0D0A00005B4F4B5D206E65742C
:1018500020646174653A2573000000005B65727254
:101860006F725D206E6574206765742074696D65A4
:10187000206661696C0D0A0010B510210D48FFF754
:1018800064FF18B900210C4801F0DFF92021094854
:10189000FFF75BFF18B90021074801F0D8F9402194
:1018A0000448FFF752FF18B90021034801F0D1F9AD
:1018B00010BD0000000C01400008004008B50121E7
:1018C000082000F0DBFB7020ADF8000004208DF84C
:1018D000030069460148FFF7ADFE08BD000C01405A
:1018E0000146CA1701EB92729210A1EB820292B9E3
:1018F000642091FBF0F200FB121050B94FF4C87055
:1019000091FBF0F200FB121008B901207047002093
:10191000FCE70120FAE70020F8E700001FB50121ED
:10192000052000F0ABFB0220ADF80C0003208DF881
:101930000E0048208DF80F0003A91248FFF77AFE29
:1019400001210020FFF756FE00208DF80400022040
:10195000009008208DF8050001208DF806006846EB
:10196000FFF7E6FC07208DF8080000208DF809003D
:1019700001208DF80A008DF80B0002A800F004FB8E
:101980001FBD0000000801401FB50121052000F027
:1019900075FB1020ADF80C0003208DF80E004820D8
:1019A0008DF80F0003A91248FFF744FE0421002020
:1019B000FFF720FE00208DF8040010200090082082
:1019C0008DF8050001208DF806006846FFF7B0FC91
:1019D0000A208DF8080000208DF8090001208DF8FC
:1019E0000A008DF80B0002A800F0CEFA1FBD00001F
:1019F000000801401FB50121052000F03FFB082031
:101A0000ADF80C0003208DF80E0048208DF80F0073
:101A100003A91148FFF70EFE03210020FFF7EAFD9E
:101A200000208DF80400082000908DF805000120AA
:101A30008DF806006846FFF77BFC09208DF808004A
:101A400000208DF8090001208DF80A008DF80B00A8
:101A500002A800F099FA1FBD0008014010B53A48ED
:101A60000068012804D0022824D0032866D143E06E
:101A70000020354908600A203449086013E03348E3
:101A800002880068401C314B91B21860304801F068
:101A9000DCF8642002F006FA2C480068642802DBB7
:101AA00001202A49086002212A48FFF74EFE00283B
:101AB000E5D147E00020244908600A202649086053
:101AC00013E0254802880068401C234B91B218603F
:101AD0001F4801F0BCF8642002F0E4F91E480068D9
:101AE000642802DB01201C49086010211948FFF717
:101AF0002CFE0028E5D125E00020134908600A20CB
:101B00001649086013E0154802880068401C134B12
:101B100091B218600E4801F09CF8642002F0C2F9FE
:101B20000E480068642802DB01200C490860082187
:101B30000848FFF70AFE0028E5D103E0002002492B
:101B4000086000BF00BF10BD34000020440000202A
:101B50000008004000080140480000204C00002020
:101B600010B529480068B8B910212848FFF7EDFDE5
:101B700090B105210820FFF7FCFD642100FB01F472
:101B8000E01704EB10500013214908600846008854
:101B900081B2204801F059F81F480068B8B92021E7
:101BA0001A48FFF7D2FD90B105210620FFF7E1FDAD
:101BB000642100FB01F4E01704EB105000131749F7
:101BC00008600846008881B2124801F040F81448C5
:101BD0000068B8B940210D48FFF7B7FD90B1052165
:101BE0000846FFF7C6FD642100FB01F4E01704EB93
:101BF000105000130B4908600846008881B2054860
:101C000001F027F810BD000050000020000C01403A
:101C1000440000200008004054000020480000203C
:101C2000580000204C00002000B589B0012104209C
:101C300000F014FA0121092000F020FA4FF460703E
:101C4000ADF8200018208DF8230003208DF8220025
:101C500008A91F48FFF7EEFC40F2CF20ADF81400B2
:101C60006320ADF818000020ADF80A00ADF81600AA
:101C700005A9184800F0F0FF6020ADF8040001202D
:101C8000ADF806000020ADF80C0001A9114800F0E5
:101C9000D7FE01A90F4800F033FF01A90D4800F05D
:101CA00089FF08210B4800F01DFF0821094800F0BA
:101CB00077FF0821074800F0BBFF0121054800F02D
:101CC000A7FE0121034800F0AFFE09B000BD0000EF
:101CD000000C01400008004010B5002440F25B7287
:101CE0002FA13BA002F0A8F904462CB139A001F0C5
:101CF000E1FA6FF0040010BD3EA001F0DBFA4FF4F2
:101D0000967002F0CFF802F009F904463CB142A007
:101D100001F0D0FA00BFFFF755FB0028FBD148A027
:101D200001F0C8FA4FF47A7002F0BCF802F020FA21
:101D300004462CB14DA001F0BDFA6FF00500DAE7C2
:101D400056A001F0B7FA4FF47A7002F0ABF84FF4F6
:101D50007A7002F0A7F85E4A5EA1634802F098FC30
:101D600028B162A001F0A6FA6FF00600C3E764A0F4
:101D700001F0A0FA4FF47A7002F094F801220021E9
:101D800065A002F0A3FF28B170A001F093FA6FF0F4
:101D90000700B0E774A001F08DFA0020ABE7000067
:101DA000696F742D30367A30306365376C783777E9
:101DB0007275772E6D7174742E696F746875622EEA
:101DC000616C6979756E63732E636F6D000000003E
:101DD00054435000657370383236365F636F6E6EF1
:101DE0006563745F736572766572206661696C0DF8
:101DF0000A000000657370383236365F636F6E6EAE
:101E00006563745F7365727665722073756363656D
:101E100073730D0A00000000657370383236365F48
:101E2000636865636B5F636F6E6E656374696F6E25
:101E30005F737461747573206661696C0D0A0000CC
:101E4000657370383236365F636865636B5F636FE6
:101E50006E6E656374696F6E5F7374617475732001
:101E6000737563636573730D0A00000065737038E2
:101E70003236365F656E7472795F7472616E73703C
:101E80006172656E745F7472616E736D697373698C
:101E90006F6E206661696C0D0A0000006573703812
:101EA0003236365F656E7472795F7472616E73700C
:101EB0006172656E745F7472616E736D697373695C
:101EC0006F6E20737563636573730D0A0000000005
:101ED000E85B00084C69676874266B307A68385A8A
:101EE0004153524F6E0000002C5C00086D717474F9
:101EF0005F636F6E6E656374206661696C0D0A00C6
:101F00006D7174745F636F6E6E6563742073756357
:101F1000636573730D0A00002F7379732F6B307A2A
:101F200068385A4153524F6E2F4C696768742F744A
:101F300068696E672F736572766963652F70726F5B
:101F400070657274792F7365740000006D7174741C
:101F50005F7375627363726962655F746F706963E2
:101F6000206661696C0D0A006D7174745F7375622F
:101F70007363726962655F746F7069632073756300
:101F8000636573730D0A000070B5002100230F22F2
:101F9000C47804B3154C246804F4E064C4F5E06428
:101FA000210AC1F10403CA40447804FA03F1847899
:101FB0001440214309010E4C0678A155047804F021
:101FC0001F050124AC4005786D11AD0005F1E02539
:101FD000C5F8004109E0047804F01F050124AC4075
:101FE000044D0678761145F8264070BD0CED00E0F2
:101FF00000E400E080E100E002490143024A116090
:10200000704700000000FA050CED00E0014908628D
:102010007047000000000E420349096841EA800150
:10202000014A116070470000007000400146002026
:10203000034A52680A400AB1012000E000207047BC
:102040000070004001460020034A506820F44040E0
:1020500008435060704700000010024029B1064A52
:10206000D2690243044BDA6104E0034AD269824335
:10207000014BDA61704700000010024029B1064AA6
:1020800092690243044B9A6104E0034A92698243D5
:10209000014B9A61704700000010024029B1064AC6
:1020A000D2680243044BDA6004E0034AD2688243F8
:1020B000014BDA60704700000010024001490860DF
:1020C000704700004004424230B500210022002445
:1020D00000232D4D6D6805F00C0121B1042905D0B8
:1020E000082923D105E0294D056022E0274D056030
:1020F0001FE0254D6D6805F47012234D6D6805F4E1
:102100008034022505EB92421CB9214D55430560F0
:102110000BE01D4D6D6805F400351DB11C4D554398
:10212000056002E0194D5543056002E0174D05605A
:1021300000BF00BF144D6D6805F0F0010909154D91
:102140006B5C0568DD4045600F4D6D6805F4E0612E
:10215000090A104D6B5C4568DD4085600A4D6D686D
:1021600005F46051C90A0B4D6B5C4568DD40C560E4
:10217000054D6D6805F44041890B074D6B5CC568E2
:10218000B5FBF3F5056130BD0010024000127A0086
:1021900000093D005C0000206C00002010B50146E5
:1021A0000022002300204A11012A02D1094C236891
:1021B00006E0022A02D1074C236A01E0054C636A5B
:1021C00001F01F02012494401C400CB1012000E0EA
:1021D000002010BD0010024000210B4A11700A4A75
:1021E000203A82F82010012802D0042808D103E008
:1021F0000121054A117004E00521034A117000E035
:1022000000BF00BF70470000201002400149086075
:10221000704700003C0442420249096A0143014AF6
:1022200011627047001002402DE9F05F06460F462C
:1022300090469946DDE90AAB002440F2B27086422E
:1022400003DB40F63300864202DD0120BDE8F09F4B
:1022500040F2B2750AE02846FFF742FB10B1204871
:10226000044401E01F480444681C85B2B542F2DB17
:10227000781EC7B2002510E01B48405D40F2A32144
:10228000484304EBC0143046FFF72AFB18B1012D78
:1022900001D116480444681C85B2BD42ECDBA8F1AC
:1022A000010040F2A321484304EBC014C9EB4910DC
:1022B000C0EB092004EB0014CAEB0A1004EB800405
:1022C0005C4401214FF0C050FFF7C8FE0120FFF72A
:1022D0009DFE204600F09CFA00F0C6FA0020B5E70B
:1022E0000085E2018033E1017D5A00088051010040
:1022F000024909888143014A11807047042800403F
:1023000010B501214FF0C050FFF7A8FE0120FFF7E4
:102310007DFE0420FEF724FF4AF2A251884212D02B
:1023200011A000F0C7FF00F04DF817A000F0C2FFA9
:1023300000F0E4FC4AF2A2510420FEF71FFF002047
:10234000FFF764FE0AE016A000F0B4FF00F096FA72
:102350000121032000F0D6F900F086FA00F0E2F93E
:1023600000F07AF810BD00000D0A0A2052544320F4
:102370006E6F742079657420636F6E66696775721D
:1023800065642E2E2E2E0A000D0A2052544320631F
:102390006F6E666967757265642E2E2E2E0A0000B8
:1023A0000D0A204E6F206E65656420746F20636F88
:1023B0006E666967757265205254432E2E2E2E0A62
:1023C0000000000010B50220FFF730FE28B1022007
:1023D000FFF722FE00F052FA29E001214FF0C05031
:1023E000FFF73CFE0120FFF711FEFEF7B1FE0120D2
:1023F000FFF7F2FE00BF4120FFF7D0FE0028FAD021
:102400004FF48070FFF708FF0120FFF7FFFE00F098
:1024100035FA00F029FA0121032000F073F900F0E9
:1024200023FA47F6FF7000F00FFA00F01DFA10BD16
:102430000348008840F01000014908807047000000
:1024400004280040034800884FF6EF710840014916
:10245000088070470428004070B50026002400253D
:1024600000F07AF806463848B6FBF0F437480088A2
:10247000A0423CD035490C8040F2B27510E02846AD
:10248000FFF72EFA40B1B4F5B77F02D3A4F5B774C5
:1024900004E0681C85B206E0A4F26D14681C85B2E5
:1024A000B4F5B67FEBD800BF29488580002516E03B
:1024B00027498888FFF714FA30B1012D04D11D2C6B
:1024C00001D31D3C09E00CE02248405DA04203D846
:1024D0002048405D241A00E003E0681C85B21C2CF3
:1024E000E6D200BF681C1A498871601CC871164882
:1024F000B6FBF0F100FB11644FF46160B4FBF0F047
:10250000134908704FF46160B4FBF0F100FB114017
:102510003C21B0FBF1F00E4948704FF46160B4FB10
:10252000F0F100FB11403C21B0FBF1F201FB120085
:10253000074988700B46DA799979988800F034F861
:1025400003490872002070BD805101000E00002078
:10255000A00600207D5A0008002100220023084820
:102560000188001D0388001F0288914204D0001DCD
:10257000008840EA0240704743EA0140FBE7000060
:102580001828004001460020064A12880A40D0B2AE
:10259000044A121F12880A4012B108B1012000E05B
:1025A0000020704704280040F0B503460C4615464D
:1025B000642093FBF0F0C6B2642093FBF0F700FBBD
:1025C0001730C1B2132E02DD01F16400C1B208461A
:1025D000CF1701EB977701EBA707BAB2072092FB61
:1025E000F0F700FB172082B25719601EDFF82CC0ED
:1025F0001CF80000384482B2CF1701EB9777BF1068
:10260000A1EB87071FB9032C01DA501E82B2072005
:1026100092FBF0F700FB1720C0B2F0BD715A000822
:102620003EB50120FFF7AEFF88B1FFF715FF224846
:10263000807821494978204A1278CDE9002102901A
:102640001D48C379827981881CA000F033FE0220E6
:10265000FFF798FF002829D00220FFF749FEFFF777
:10266000FBFE1548807814494978134A1278CDE961
:10267000002102901048C3798279818817A000F068
:1026800019FE0120FFF7C2FCFFF7D2FE00F0ECF8C4
:10269000FFF762FF1A494418204600F0B9F800F02D
:1026A000E3F8FFF7CFFE0020FFF7B0FC0520FFF7AF
:1026B0001FFE00F0D9F83EBDA00600205265616CF7
:1026C0002054696D653A25642D25642D25642025E7
:1026D000643A25643A25640D0A0000002D2D2D2D45
:1026E000416C61726D2054696D653A25642D2564D5
:1026F0002D25642025643A25643A25640D0A0000DE
:102700008051010029B1064A12880243044B1A8005
:1027100004E0034A12888243014B1A80704700008C
:102720000028004008B503208DF8000001208DF836
:10273000010000208DF8020001208DF8030068469A
:10274000FFF722FC08BD00002DE9F05F06460F46AA
:1027500090469946DDE90AAB002440F2B270864209
:1027600003DB40F63300864202DD0120BDE8F09F26
:1027700040F2B2750AE02846FFF7B2F810B12048DF
:10278000044401E01F480444681C85B2B542F2DBF2
:10279000781EC7B2002510E01B48405D40F2A3211F
:1027A000484304EBC0143046FFF79AF818B1012DE6
:1027B00001D116480444681C85B2BD42ECDBA8F187
:1027C000010040F2A321484304EBC014C9EB4910B7
:1027D000C0EB092004EB0014CAEB0A1004EB8004E0
:1027E0005C4401214FF0C050FFF738FC0120FFF797
:1027F0000DFC204600F01AF800F036F80020B5E78E
:102800000085E2018033E1017D5A0008805101001A
:1028100000B50246FFF70CFE100C03490880091DA5
:102820000A80FFF70FFE00BD2028004000B50246D9
:10283000FFF7FEFD100C03490880091D0A80FFF711
:1028400001FE00BD1828004000B50246FFF7F0FD6C
:10285000C2F3034003490880091D0A80FFF7F2FD17
:1028600000BD00000828004000BF0348008800F0B9
:1028700020000028F9D0704704280040074800884D
:102880004FF6F77108400549088000BF03480088EB
:1028900000F008000028F9D070470000042800402C
:1028A00010B500F001F810BD0CB5002001900090AB
:1028B0003348006840F480303149086000BF304838
:1028C000006800F4003000900198401C01900098CE
:1028D00018B90198B0F5A06FF1D12948006800F44B
:1028E000003010B10120009001E00020009000981D
:1028F000012843D12348006840F0100021490860B6
:102900000846006820F0070008600846006840F0AC
:10291000020008601A484068194948600846406843
:1029200048600846406840F4806048600846406857
:1029300020F47C1048600846406840F4E810486085
:102940000846006840F08070086000BF0C480068CE
:1029500000F000700028F9D00948406820F003001A
:10296000074948600846406840F00200486000BFE0
:102970000348406800F00C000828F9D10CBD0000A5
:102980000010024000200240042808D14FF0E0214E
:10299000096941F004014FF0E022116107E04FF0B6
:1029A000E021096921F004014FF0E0221161704734
:1029B00010B51348006840F001001149086008464E
:1029C0004068104908400E494860084600680E49B2
:1029D00008400B4908600846006820F48020086021
:1029E0000846406820F4FE0048604FF41F008860ED
:1029F000FFF756FF4FF000600449086010BD00006B
:102A0000001002400000FFF8FFFFF6FE08ED00E0B6
:102A100021B1028842F08002028004E002884FF671
:102A20007F731A400280704721B1028842F0010290
:102A3000028004E002884FF6FE731A40028070475D
:102A400070B5002400220023058C4FF6EF76354048
:102A50000584028C8388048B48F6FF752C404FF662
:102A6000FF452C400D884FF6FF7606EA05252C43DE
:102A70004FF6DF752A400D8906EA05152A434D8871
:102A800006EA05152A43154DA84202D0144DA84266
:102A90001DD14FF67F752A404D894FF6FF7606EA25
:102AA00005152A434FF6BF752A408D8806EA05159D
:102AB0002A434FF6FF352B404FF2FF752B408D898F
:102AC00006EA85052B43CD8906EA85052B438380DD
:102AD0000483CD880587028470BD0000002C01406E
:102AE000003401400A460021018B4FF2FF73194068
:102AF0004FF6FF7303EA0223194301837047000076
:102B000070B5002400220023058C4FF6FF66354087
:102B10000584028C8388848B4FF68F752C404FF68A
:102B2000FC752C400D882C434FF6FF552A400D892B
:102B30004FF6FF7606EA05252A434D8806EA052565
:102B40002A43154DA84202D0144DA8421DD14FF280
:102B5000FF752A404D894FF6FF7606EA05252A4380
:102B60004FF6FF352A408D8806EA05252A434EF6A2
:102B7000FF752B404DF6FF752B408D8906EA051534
:102B80002B43CD8906EA05152B4383808483CD88AA
:102B90008587028470BD0000002C01400034014094
:102BA0000A460021818B4FF6F77319401143818348
:102BB0007047000070B5002200230024058C4EF6FB
:102BC000FF7635400584038C8488828B48F6FF7538
:102BD0002A404FF6FF452A400D884FF6FF7606EA59
:102BE00005252A434DF6FF752B400D8906EA05356C
:102BF0002B434D8806EA05352B430B4DA84202D0E6
:102C00000A4DA84208D14BF6FF752C408D894FF62E
:102C1000FF7606EA85152C4384808283CD88A0F850
:102C20004050038470BD0000002C0140003401407E
:102C30000A460021818B4FF2FF7319404FF6FF7354
:102C400003EA022319438183704701877047818714
:102C50007047A0F840107047002202881D4B984230
:102C60000ED01D4B98420BD0B0F1804F08D01B4BBB
:102C7000984205D01A4B984202D01A4B984204D180
:102C80004FF68F731A404B881A43174B984207D060
:102C9000164B984204D04FF6FF431A40CB881A4394
:102CA00002808B8883850B8803850A4B98420BD062
:102CB000094B984208D00E4B984205D00D4B9842D4
:102CC00002D00D4B984201D10B7A038601238382F7
:102CD00070470000002C0140003401400004004017
:102CE00000080040000C00400010004000140040AC
:102CF0000040014000440140004801401CB5FFF77E
:102D0000B3FD1248807811494978104CCDE9001084
:102D10002378E279A179A088FFF716FDFFF7A4FDDB
:102D2000002001212346CDE90010DB795B1CDAB2DB
:102D30002346997998880023FFF776FAFFF794FDE8
:102D4000FFF780FBFFF790FD1CBD0000A0060020F0
:102D500010B586B0044601210420FFF78FF9012148
:102D60008803FFF78BF94FF40070ADF800000320E3
:102D70008DF8020018208DF8030069461C48FEF704
:102D800059FC4FF48060ADF8000004208DF803007A
:102D900069461748FEF74EFC02940020ADF80C007F
:102DA000ADF80E00ADF81000ADF814000C20ADF831
:102DB000120002A90F4800F0C3F925208DF8040085
:102DC00000208DF805008DF8060001208DF8070021
:102DD00001A8FFF7D9F8012240F22551054800F07B
:102DE0008AF90121034800F043F906B010BD000044
:102DF000000801400038014010B540F225511C4840
:102E000000F04FF970B11A4800F006FA194908703D
:102E100008460178184802780078401C164B187054
:102E20001648815414480078401E1449085C2E2826
:102E300012D113A11148FDF7C6F928B91248C0688C
:102E400080F400501049C86000200B4908704FF40E
:102E500080710A48FDF787F906480178044800F0B8
:102E6000E0F940F22771024800F0F3F810BD0000CD
:102E700000380140010000200000002094000020E4
:102E80004C45445F4F4E2E000010014010B540F2FB
:102E900025511C4800F005F970B11A4800F0BCF942
:102EA0001949087008460178184802780078401CD3
:102EB000164B18701648815414480078401E144967
:102EC000085C2E2812D113A11148FDF77CF928B90E
:102ED0001248C06880F400501049C86000200B49B7
:102EE00008704FF480710A48FDF73DF906480178F3
:102EF000044800F096F940F22771024800F0A9F862
:102F000010BD00000044004003000020020000202B
:102F1000940100204C45445F4F4E2E0000100140AC
:102F200010B586B0044601210820FFF7A7F801215B
:102F30008804FFF793F84FF48060ADF80000032099
:102F40008DF8020018208DF8030069461C48FEF732
:102F500071FB4FF40060ADF8000004208DF8030011
:102F600069461748FEF766FB02940020ADF80C0096
:102F7000ADF80E00ADF81000ADF814000C20ADF85F
:102F8000120002A90F4800F0DBF827208DF804009A
:102F900000208DF805008DF8060001208DF807004F
:102FA00001A8FEF7F1FF012240F22551054800F08B
:102FB000A2F80121034800F05BF806B010BD000044
:102FC000000C01400048004010B540F22551164861
:102FD00000F067F8B8B1144800F01EF91349087002
:102FE0000A7813490868411C114B196011490A54A9
:102FF00018460068B0F5007F05D300201946086028
:1030000001200D490870094801780C4800F009F9C1
:1030100040F22771094800F01CF840F2255102489F
:1030200000F017F810BD0000004800400800002024
:103030000400002094040020090000200038014012
:1030400001F40072B2F5007F00D100BFCA430280D4
:10305000704710B50022002340F66A14A14200D147
:1030600000BF0A1201249440A3B2DC43048010BDC7
:1030700021B1828942F40052828104E082894DF6B6
:10308000FF731A408281704702460020B1F5007F2D
:1030900000D100BF13880B400BB1012000E00020DD
:1030A000704770B50246002400230025002040F63A
:1030B0006A16B14200D100BFC1F3421501F01F03EF
:1030C000012606FA03F3012D02D19689334006E06A
:1030D000022D02D1168A334001E0968A33400C1249
:1030E000012606FA04F41688344013B10CB101200D
:1030F00000E0002070BDF0B5034600240026002546
:10310000002040F66A17B94200D100BF1846C1F34B
:10311000421401F01F06012707FA06F5012C01D120
:103120000C3004E0022C01D1103000E014301AB150
:1031300007682F43076002E00768AF430760F0BDF0
:103140002DE9F04786B005460E460024A24600BF92
:10315000A1460027B08900B100BF2F462C8A4CF64B
:10316000FF700440F08804432C82AC894EF6F310C3
:103170000440B08831890843718908430443AC8115
:10318000AC8A4FF6FF400440B0890443AC8201A8EA
:10319000FEF79AFF1F48874202D1DDF810A001E038
:1031A000DDF80CA0A88900F4004040B10AEBCA0089
:1031B00000EB0A1031684900B0FBF1F807E00AEBB8
:1031C000CA0000EB0A1031688900B0FBF1F86420F6
:1031D000B8FBF0F004012009642101FB1089A889E3
:1031E00000F4004040B1322000EBC900B0FBF1F028
:1031F00000F00700044308E0322000EB09106421CE
:10320000B0FBF1F000F00F0004432C8106B0BDE8E4
:10321000F08700000038014001468888C0F30800AC
:103220007047C1F308028280704770B504460D46AE
:1032300029462046FFF7F5FF00BF80212046FFF713
:1032400023FF0028F9D070BD2DE9F04107460C4658
:10325000154626460FE031783846FFF7E2FF761C28
:1032600000BF80213846FFF70FFF0028F9D08021EA
:103270003846FFF7E5FE281EA5F10105EBD1BDE8B4
:10328000F08170B506460C46002500BF615D3046F2
:10329000FFF7CBFF6D1C605D0028F7D100BF402118
:1032A0003046FFF7F1FE0028F9D040213046FFF705
:1032B000C7FE70BD0FB4054B10B503A9044A0298B0
:1032C00000F050F910BC5DF814FB00001943000831
:1032D000840000200FB4084B10B504A902AA03987B
:1032E00000F040F9044602A9002000F0BEFC204690
:1032F00010BC5DF814FB00006B3C000800487047F0
:103300009000002030B528B1144C031F0020216824
:103310000A4605E0084630BD9A4203D81046526876
:10332000002AF9D1002800D041680BD00468A3EB33
:103330000005A54204D11B681C440346046002E05A
:10334000436000E023603AB11C68D51AA54203D15E
:1033500015682C441C6052685A6030BD88000020FB
:103360002DE9F04782460F4C10480D4E0E4F001BC2
:103370004FF0000820F007054FF001090022114628
:10338000504601F007F8002802D1306810B1002043
:10339000BDE8F0873C60C4E90058C6F80090EDE74E
:1033A0008C000020BC18002088000020B8480020B5
:1033B00002E008C8121F08C1002AFAD170477047FE
:1033C000002001E001C1121F002AFBD1704700005C
:1033D0002DE9FF5F82B00021DDE90430020DDDF848
:1033E00040B0034318D044F61050A2F2FF324243DB
:1033F0001514119801281FD0A5EB0B00401C5FEAA3
:10340000000A4FF000064E4FDFF83891B0465046A4
:1034100015D5CAF1000413E0119801244AA301282C
:1034200001D16FEA0B010298119AC0E90031C0E99D
:10343000024206B0BDE8F09FCBF10000DFE7044692
:103440000021404A491842EB0450CDE9001012E037
:10345000E00707D032463B4640464946FDF734F97F
:103460008046894632463B4610461946FDF72CF900
:1034700006460F466410002CEAD1DDE90401DDE9BF
:103480000023BAF1000F06DAFDF71EF942464B465B
:10349000FDF71AF905E0FDF754FB42464B46FDF7F0
:1034A00050FB04460E460022284BFDF7B7F903D81F
:1034B0004FF0FF30014607E00022254B2046314601
:1034C000FDF75BF8FDF7B8FB102409E0002C0ADBE0
:1034D0000A220023FDF7D0F9039B30321A55641EEF
:1034E00050EA0102F2D1641C039AC4F1110314449E
:1034F000119A012A03D0012208430DD10AE00843A2
:1035000004D000204FF0110B119072E7A3EB0B05D4
:103510006D1E0DE05B4504DD4FF0000205F1010575
:1035200004E003DA4FF00002A5F10105002AECD017
:1035300002981199C0E90231C0E9004579E700001D
:10354000000014400000F03F300000000000F04395
:103550000000E03F30380A2801D2012070470020E7
:10356000704700002DE9FF4F95B09A468846064601
:103570000025EEE1252877D100242746F94A0121CC
:10358000039400E0044316F8013F203B01FA03F0E6
:103590001042F7D130782A2811D06FF02F033078FD
:1035A000A0F13002092A16D8039A44F0020402EB73
:1035B000820203EB42021044761C0390EFE758F8B6
:1035C000042B0392002A03DA504244F4005403907F
:1035D00044F00204761C30782E2816D116F8010F1C
:1035E00044F004042A280DD06FF02F023078A0F1A7
:1035F0003003092B09D807EB870302EB4303C718F5
:10360000761CF3E758F8047B761C30786C280FD0D2
:1036100006DC4C2817D068280DD06A2814D104E0A5
:10362000742810D07A280FD10DE044F400140AE079
:1036300044F4801401E044F440147278824202D1D0
:1036400004F58014761C761C307866280BD013DCC9
:10365000582877D009DC002875D04528F6D04628B0
:10366000F4D047281AD193E118E0632835D06428B4
:1036700079D0652812D18BE1702873D008DC6728D7
:10368000F1D069286FD06E280DD06F2806D1ACE03C
:1036900073282CD0752874D0782853D052461799A7
:1036A00090476D1C54E1C4F30250022809D003284E
:1036B0000DD0D8F8001004280DD00D6008F10408D2
:1036C00046E1D8F80010EA17C1E90052F6E7D8F849
:1036D00000100D80F2E70D70F0E718F8041B8DF86C
:1036E000001000208DF80100EB46012003E058F89F
:1036F00004BB4FF0FF3061074FF0000102D40DE032
:1037000009F101018946B9420FDA8145F8DB1BF85E
:1037100009100029F4D108E009F10101894681422C
:10372000FADB1BF809100029F6D103985346A0EBE9
:10373000090721463846179A00F080FA284400EB22
:10374000090507E044E008E10DE01BF8010B5246D3
:1037500017999047B9F10109F7D2534621463846E7
:10376000179AF2E039E00A21C4F302524FF0000B3D
:103770000091022A06D058F8040BC117032A09D079
:103780000AE023E008F1070020F00702F2E8020156
:10379000904605E000B2C117042A01D140B2C1171A
:1037A000002906DA0A460021404261EB02012D227F
:1037B00002E0220504D52B228DF80420012203E02B
:1037C000E20701D02022F7E7914657E00A2100E006
:1037D00010214FF0000B00910BE010214FF0000B77
:1037E00044F004040827009103E008204FF0000B88
:1037F0000090C4F30252022A05D058F8040B0021AD
:10380000032A08D008E008F1070020F00702F2E8D8
:103810000201904603E080B2042A00D1C0B24FF00A
:10382000000922072AD53278702A07D0DDF800C0B7
:103830008CF0100C5CEA0B0C05D00EE040228DF8E9
:103840000420012208E050EA010306D030238DF85D
:1038500004308DF8052002229146009B83F0080376
:1038600053EA0B030AD150EA010201D1620705D5E0
:1038700030228DF804204FF001097F1E3278582A3B
:1038800004D039A20C920CAA02920BE03BA2F9E7F9
:103890005B46009AFCF7F0FF0C9B9B5C029A521E61
:1038A0000292137050EA0102F2D1029804A9081A98
:1038B00000F1200B600702D524F4803400E00127DA
:1038C0005F4502DDA7EB0B0000E0002000EB0B01E1
:1038D000009003984944401A0390E00306D45346ED
:1038E0002146179A039800F0A9F90544002706E03D
:1038F00001A85246C05D179990476D1C7F1C4F452B
:10390000F6DBE0030CD553462146179A039800F0E6
:1039100095F9054404E030205246179990476D1CF4
:103920000099481E00900029F5DC08E002980299F1
:1039300052460078491C0291179990476D1CBBF1C3
:103940000001ABF1010BF1DC5BE100F065F905442E
:10395000761C307800287FF40DAE19B02846BDE8FB
:10396000F08F00000928010030313233343536370A
:1039700038396162636465660000000030313233BB
:10398000343536373839414243444546000000005B
:10399000600700D4062708F1070020F00700F0E8D0
:1039A0000223804603F0004C5FEA0C0001D097A090
:1039B00009E0200501D596A005E0E00701D095A01B
:1039C00001E0AFF24C001390307823F000436528FB
:1039D0000CD006DC452809D046281DD047287FD1C9
:1039E0003BE0662818D067287AD136E00021112FF5
:1039F00001DB112000E0781CCDE9000104A90CA82E
:103A0000FFF7E6FCDDE90D010C9A4FF0000B07F122
:103A10000109109200914EE04FF000400097CDE96F
:103A2000011004A90CA8FFF7D3FCDDE90D020C9BE3
:103A30000F994FF0000B91461093009211B9791C29
:103A400000EB0109B7EB090003D4C0F1FF3B07F11C
:103A50000109A9EB0700019042E0012F00DA0127DC
:103A60000021112F01DD112000E03846CDE90001D1
:103A700004A90CA8FFF7ACFCDDE90D010C9A00913C
:103A80004FF0000BB946109221070FD4009A4A4517
:103A900003DA914601E0A9F10109B9F1010F05DD51
:103AA000109AA9F10101515C3029F4D0B84202DA30
:103AB00010F1040F03DA0121CDE9011010E0002814
:103AC00003DC8344A9EB000102E0411C494500DD11
:103AD0008946A0EB0B00401C01904FF00040029083
:103AE000200705D40198484502DB4FF0FF300190D4
:103AF00000208DF84B0002980DF14B07B0F1004FFC
:103B000025D002200C902B200D90029800280CDA72
:103B1000404202902D200D9007E00A210298FCF708
:103B200095FE3031029007F8011D0C99481E0C904B
:103B30000029F2DC02980028EFD1791E0D98087058
:103B4000307800F0200040F0450007F8020D11A881
:103B5000C01BC01D02901398007800B1012000EB3B
:103B60000901019801EBE071029801440398401AA1
:103B7000401E0390E00306D453462146179A03984B
:103B800000F05CF805441398007818B15246179974
:103B900090476D1CE00323D553462146179A03989E
:103BA00000F04CF805441BE0BBF1000F07DB009868
:103BB000584504DD1098179910F80B0001E017998B
:103BC00030205246904701980BF1010B401E05F141
:103BD0000105019004D12E205246179990476D1C83
:103BE000B9F10001A9F10109DEDC05E017F8010BCC
:103BF0005246179990476D1C0299481E0290002961
:103C0000F4DC53462146179A03989EE62D000000E7
:103C10002B000000200000002DE9F04104460025A3
:103C20001E461746880404D405E039462020B047D4
:103C30006D1C641EF9D52846BDE8F0812DE9F041E0
:103C4000044600251E469046C80301D5302700E0F3
:103C50002027880404D505E041463846B0476D1C4E
:103C6000641EF9D52846BDE8F0810A68531C0B6034
:103C700010707047014609B1086808B90020704704
:103C800019B1D1E90120904201D30846F7E702E0DB
:103C90008868401C886041B1D1E90120904204D27B
:103CA0008A680868805C2028F2DDD1E90120904212
:103CB00002D18868401E88600846E0E770B5044677
:103CC000002522E02568A08900F4807020B9A06852
:103CD00010B1A068FFF7F2FFA08900F4807028B946
:103CE000206918B10A4A206951688847A08900F400
:103CF000007028B9206A18B1054A206A51688847BF
:103D000003484168204688472C46002CDAD170BD14
:103D100028000020024800680149496808447047AB
:103D20002000002070B504460D460022294620469A
:103D300000F006FB70BD70B5044628202168884756
:103D400005461DB128212846FCF70DFA284670BD0E
:103D500010B5044600221146204600F06BF810BD55
:103D60002DE9F0478AB004460E46154698461C21B8
:103D700003A8FCF7F8F9002700202C4908604860E8
:103D800004B106B932E00394049600200590284A55
:103D900007CA07AB07C32648FFF7CDFF074607B999
:103DA00024E003A801F0A0FD8246FFF763FF8146EF
:103DB0004946384601F0C4FC00B917E0B8F1000FDD
:103DC0000BD003A8FFF756FFDDE90410884203D2A9
:103DD00005990398405C00B108E01DB1059903986E
:103DE0000844286038460AB0BDE8F08717B1384665
:103DF000FFF764FFC4B1019400200290DDE90410D4
:103E0000884202D20598029004E0049810B1049808
:103E1000401E02901DB1DDE90101084428600348FD
:103E2000DDE9011206C000BF0020DCE72000002011
:103E3000280000202DE9F04104460D46164614B92D
:103E40000020BDE8F0812046FCF7B6F9471C334658
:103E50002A4639462046FFF783FFF2E770B504464D
:103E60000D4604B10DB9012070BDAC4201D1002056
:103E7000FAE705E0207808B90020F5E7641C6D1C1E
:103E80002078FCF751F906462878FCF74DF9864270
:103E9000F0D02078FCF748F906462878FCF744F97A
:103EA000301AE1E70146114A12884A434FF0E023F5
:103EB0005A6100229A611A46126942F001021A619F
:103EC00000BF4FF0E022106900F001021AB100F4C7
:103ED0008032002AF5D04FF0E022126922F0010270
:103EE0004FF0E0231A6100229A6170470C00002015
:103EF00010B507A000F0C2F942F2107106A000F060
:103F000089F910B14FF0FF3010BD0020FCE7000030
:103F100041540D0A000000004F4B000010B50AA0EC
:103F200000F0ACF942F210710BA000F073F940B14F
:103F300042F210710BA000F06DF910B14FF0FF309C
:103F400010BD0020FCE7000041542B43495053545E
:103F5000415455530D0A00005354415455533A33BC
:103F6000000000004F4B000070B505460C461EA037
:103F700000F084F94FF47A7120A000F04BF910B1F1
:103F80004FF0FF3070BD1EA000F078F94FF47A7149
:103F90001AA000F03FF910B16FF00100F2E71CA089
:103FA00000F06CF91EA000F069F9284600F066F9EF
:103FB0001BA000F063F91BA000F060F918A000F04E
:103FC0005DF9204600F05AF915A000F057F916A047
:103FD00000F054F900BF41F2883114A000F01AF942
:103FE0000028F8D100BFCDE741542B43574D4F4433
:103FF000455F4355523D310D0A0000004F4B000014
:1040000041542B4349504D55583D300D0A00000096
:1040100041542B43574A41505F4355523D000000E5
:10402000220000002C0000000D0A000057494649FC
:1040300020474F54204950007FB505460C46164690
:10404000002000900190029003901CA000F016F94F
:104050001EA000F013F9284600F010F91BA000F094
:104060000DF91BA000F00AF918A000F007F920468E
:1040700000F004F915A000F001F915A000F0FEF819
:10408000324614A16846FFF725F9684600F0F6F8B5
:1040900011A000F0F3F841F2883110A000F0BAF856
:1040A00048B141F288310FA000F0B4F818B14FF0D8
:1040B000FF3004B070BD0020FBE7000041542B43EB
:1040C000495053544152543D00000000220000006A
:1040D0002C000000256400000D0A0000434F4E4EE6
:1040E000454354004F4B000010B50AA000F0C6F83D
:1040F0004FF4FA610BA000F08DF840B14FF4FA6173
:104100000AA000F087F810B14FF0FF3010BD00207A
:10411000FCE7000041542B434950434C4F53450D9D
:104120000A000000434C4F53454400004F4B000031
:1041300010B504461CB109A000F0A0F802E009A0E7
:1041400000F09CF841F2883108A000F063F810B14B
:104150004FF0FF3010BD0020FCE700004154453116
:104160000D0A0000415445300D0A00004F4B00007D
:1041700010B516A000F082F841F2883117A000F0C7
:1041800049F810B14FF0FF3010BD4FF47A70FFF7CF
:1041900089FE4FF47A70FFF785FE11A000F06EF8EB
:1041A00041F288310DA000F035F810B16FF0010038
:1041B000EAE74FF47A70FFF775FE4FF47A70FFF775
:1041C00071FE01200A4908600020DDE741542B43BD
:1041D00049504D4F44453D310D0A00004F4B000002
:1041E00041542B43495053454E440D0A00000000F2
:1041F0001800002010B505A000F040F84FF47A70C8
:10420000FFF750FE00200249086010BD2B2B2B0049
:10421000180000202DE9F04105460C462E460A4FB5
:1042200003E00120FFF73EFE641E31463846FBF7EF
:10423000A5FF08B9002CF4D114B10020BDE8F0812D
:104240004FF0FF30FAE700009404002010B507A0FB
:1042500000F014F842F2107107A0FFF7DBFF10B175
:104260004FF0FF3010BD0020FCE7000041542B52FE
:1042700053540D0A000000004F4B000010B50446D7
:104280004FF400710548FBF76EFF002004490860F9
:1042900021460448FEF7F5FF10BD000094040020FD
:1042A000040000200048004070B504460D462A4630
:1042B00021460248FEF7C8FF70BD000000480040DC
:1042C00010B5044621460248FEF7DBFF10BD000092
:1042D000004800402DE9F04107460D4600260FF248
:1042E0003008002441463846FBF748FF044614B91D
:1042F000701EBDE8F08104E022783046761C2A5416
:10430000641C20780D28F7D10020A85500BFF0E7E5
:10431000446174650000000070B504460D46E1B2CA
:104320000548FEF77EFF00BF80210348FEF7ACFE84
:104330000028F9D0204670BD003801402E2070477B
:104340002DE9F04105460E461746002405B116B981
:104350000020BDE8F081AC685FB100E024688CB15A
:10436000206A78B13046216AFBF72DFF0028F5D18D
:1043700008E000E024682CB13046216AFFF76EFDAA
:104380000028F7D10CB1206A08B90020E1E72046E7
:10439000DFE700002DE9F0410B3020F00706104D5B
:1043A00019E02068B04215D3B0420AD9871B201DFE
:1043B000D4F80480FBF7BEFEA019C0E9007828609D
:1043C00004E060682860201DFBF7B4FE201D266015
:1043D000BDE8F081251D2C68002CE2D10020F7E714
:1043E00088000020FEF7E4FAFCF7D6FE4FF4A06048
:1043F000FDF702FEFDF718FCFDF790FAFDF7C4FA91
:10440000FDF7F8FAFCF710FEFCF758FEFDF756FA38
:104410004FF41650FEF79CFC4FF4E130FEF780FDA0
:1044200000BFFCF7CFFF0028FBD1FDF7B9F9FDF77E
:1044300067FF00BFFDF750FC0028FBD12049086052
:1044400020A0FEF737FF4FF400512148FDF78FF908
:1044500034E0FDF785FB1F480068002801DDFDF70B
:10446000FDFA00F0CBFA1C4880781E2190FBF1F297
:1044700001FB120008B900F06FFB17488078322169
:1044800090FBF1F201FB1200C0B900F0C3FB18B9B8
:1044900000200B4908600FE06823104A10A112A009
:1044A000FEF708FF01200649086000BFFDF714FC75
:1044B0000028FBD102490860FDF7DEF9C9E70000DA
:1044C000B4012242696E697420656E642E0D0A0083
:1044D0000010014034000020A00600206C5A0008A3
:1044E0006D61696E2E6300000D0A66696C65206956
:1044F000733A2025732C2066756E6374696F6E2085
:1045000069733A2025732C206C696E652069733AB3
:104510002025640D0A0000002DE9F05F0546002605
:104520000027B046B1460024AA465046FFF710FCCB
:10453000064666B93046FFF7C1FBFFF7EBFB834643
:10454000594635A0FEF7B6FE0120BDE8F09F38A120
:104550003046FFF7E7FB071E07D03748FEF7AAFEF5
:1045600036A03A69396AFEF7A5FE37A13046FFF753
:10457000D9FBB0F1000809D03448FEF79BFE2FA00C
:10458000D8F81020D8F82010FEF794FE30A130465D
:10459000FFF7C8FBB0F1000938D02F48FEF78AFEBC
:1045A0002EA14846FFF7BEFB041E0BD02D496069C3
:1045B000086001202C4908602A48008881B22B48F5
:1045C000FEF743FB2AA14846FFF7ACFB041E0BD0C5
:1045D0002949606908600120284908602648008848
:1045E00081B22248FEF733FB25A14846FFF79AFB2C
:1045F000041E0BD02449606908600120234908602B
:104600002148008881B21948FEF723FB3046FFF7A6
:1046100055FB0026002098E74572726F7220626594
:10462000666F72653A205B25735D200D0A000000FD
:104630006D6574686F640000585B000825733A204C
:104640002573200D0A00000069640000105B00085B
:10465000706172616D730000A05B00086C6967682F
:104660007431000044000020500000200008004089
:104670006C69676874320000480000205400002014
:104680006C696768743300004C00002058000020FB
:104690002DE9FE4F06460F4615464FF000083046FE
:1046A000FBF78AFD02903846FBF786FD019028460D
:1046B000FBF782FD00904FF00209C24600209849A6
:1046C000086002980C300199891C01440098801CF4
:1046D0000C181021924802680068401C904B18602A
:1046E0009048815400BF04F07F08E4090CB148F001
:1046F00080088B4801680068401C894A106089481E
:1047000000F80180002CEED1002285480168006885
:10471000401C834B186083484254042118460268A9
:104720000068401C18607F4881544D21184602687B
:104730000068401C18607B4881545121184602686B
:104740000068401C1860774881545421184602685C
:104750000068401C18607348815454221846016850
:104760000068401C18606F484254042118460268D3
:104770000068401C18606B488154C22218460168CA
:104780000068401C186067484254002218460168BF
:104790000068401C1860634842543C221846016877
:1047A0000068401C18605F4842549DF80910184684
:1047B00002680068401C18605A4881549DF808201F
:1047C000184601680068401C18605648425401466B
:1047D0001A46126888183146029AFBF7ABFC50481B
:1047E0000068029908444E490860019800B39DF89A
:1047F00005104B4802680068401C494B1860494846
:1048000081549DF80420184601680068401C186017
:104810004448425401461A46126888183946019A9B
:10482000FBF788FC3E480068019908443C49086051
:10483000009800B39DF80110394802680068401CD8
:10484000374B1860374881549DF80020184601689E
:104850000068401C18603348425401461A461268EA
:1048600088182946009AFBF765FC2D4800680099D6
:1048700008442B4908604CE04FF400712A48FBF7CC
:1048800072FC00202949086025480168254800F08D
:10489000B9F940F6B83A37E00120FFF703FB2248A8
:1048A0000078202830D12048407802282CD11E489A
:1048B000C07828B91EA0FEF7FDFC0020BDE8FE8FE1
:1048C0001948C078062818D2DFE800F01703070B54
:1048D0000F1321A0FEF7EEFC13E027A0FEF7EAFC81
:1048E0000FE02EA0FEF7E6FC0BE033A0FEF7E2FCA3
:1048F00007E039A0FEF7DEFC03E03DA0FEF7DAFC9E
:1049000000BF00BF0020D9E7BAF10000AAF1010AF8
:10491000C2D1B9F10000A9F10109ADD1401ECDE726
:104920001C000020940200209404002004000020B9
:10493000C1ACBDD3D2D1B1BBB7FECEF1C6F7B6CBB9
:10494000BDD3CADCA3ACC1ACBDD3C8B7C8CFB3C953
:10495000B9A60D0A00000000C1ACBDD3D2D1BEDCA7
:10496000BEF8A3ACB2BBD6A7B3D6B5C4D0ADD2E91E
:10497000B0E6B1BE0D0A0000C1ACBDD3D2D1BEDCE1
:10498000BEF8A3ACB2BBBACFB8F1B5C4BFCDBBA71C
:10499000B6CBB1EACAB6B7FB0D0A0000C1ACBDD3B5
:1049A000D2D1BEDCBEF8A3ACB7FECEF1B6CBB2BB63
:1049B000BFC9D3C30D0A0000C1ACBDD3D2D1BEDC88
:1049C000BEF8A3ACCEDED0A7B5C4D3C3BBA7BBF2A1
:1049D000C3DCC2EB0D0A0000C1ACBDD3D2D1BEDC3A
:1049E000BEF8A3ACCEB4CADAC8A80D0A0000000015
:1049F000CEB4D6AACFECD3A60D0A000010B5642021
:104A0000FFF750FA00240BE00B48005D7B2805D12E
:104A100009490819FFF780FD00B905E0601CC4B220
:104A2000064800688442EFD300BF002003490860B5
:104A30000349087010BD0000940400200400002009
:104A4000090000202DE9FC4707468846164600204D
:104A500001903846FBF7B0FB00904046FBF7ACFBFB
:104A6000054600203A4908601EB10098001D44190F
:104A700002E00098801C4419302135480268006823
:104A8000401C334B18603348815400BF04F07F0949
:104A9000E4090CB149F080092D4801680068401C08
:104AA0002B4A10602B4800F80190002CEED19DF8A5
:104AB0000110104602680068401C254B186025480C
:104AC00081549DF80010184602680068401C186068
:104AD0002048815401461A46126888183946009ABF
:104AE000FBF728FB1A480068009908441849086039
:104AF000BEB19DF80510164802680068401C144BB2
:104B00001860144881549DF8041018460268006823
:104B1000401C18600F488154BDF80400401C80B24E
:104B200001900C490A4A126888182A464146FBF748
:104B300001FB0748006828440549086008460168E9
:104B4000044800F05FF802480068BDE8FC870000F8
:104B50001C00002094020020F8B508211548FCF73D
:104B6000FDFD08B9012000E0002004461021114895
:104B7000FCF7F4FD08B9012000E0002005462021E3
:104B80000D48FCF7EBFD08B9012000E000200646C7
:104B90000A48006800900A4803680A480A490268FF
:104BA0000A48FEF797FB0022084909A0FFF74AFFD1
:104BB000F8BD0000000C0140000801404C0000203E
:104BC00048000020440000207C5C0008AA16002059
:104BD0002F7379732F6B307A68385A4153524F6E66
:104BE0002F4C696768742F7468696E672F657665E6
:104BF0006E742F70726F70657274792F706F73742A
:104C00000000000070B505460C46E1B22846FFF7EB
:104C10004BFB70BD38B519A0006800900224002538
:104C200021E002216846FFF7EDFF4FF400711448C0
:104C3000FBF799FA00201349086040F6B8350EE0FA
:104C40000120FFF72FF90E480078D02807D10C4833
:104C5000407820B90CA0FEF72DFB002038BD281E9F
:104C6000A5F10105ECD1201EA4F10104D9D10FA0BA
:104C7000FEF720FB4FF0FF30F0E70000C00000001F
:104C80009404002004000020D0C4CCF8CFECD3A6BC
:104C9000C8B7C8CFB3C9B9A6A3ACB7FECEF1C6F7A3
:104CA000D4DACFDFA1A30D0A00000000D0C4CCF8F5
:104CB000CFECD3A6C8B7C8CFCAA7B0DCA3ACB7FEA9
:104CC000CEF1C6F7C0EBCFDF0D0A00002DE9F84F9B
:104CD00006460F4615464FF000084FF00209C2463F
:104CE0003046FBF769FA00900098001D0DB10121D4
:104CF00000E00021441800205D4908604DB1822188
:104D00005B4802680068401C594B18605948815440
:104D100008E0A222564801680068401C544B186005
:104D20005448425400BF04F07F08E4090CB148F035
:104D300080084F4801680068401C4D4A10604D488B
:104D400000F80180002CEED100224948016800687B
:104D5000401C474B186047484254012118460268DE
:104D60000068401C1860434881549DF801101846A3
:104D700002680068401C18603E4881549DF800207D
:104D8000184601680068401C18603A4842540146C1
:104D90001A46126888183146009AFBF7CBF9344856
:104DA000006800990844324908603DB1084601682E
:104DB0000068401C2E4A10602E4847544BE00020EB
:104DC0002D4908604FF400712C48FBF7CCF92848B6
:104DD00001682848FFF716FF40F6B83A36E0012090
:104DE000FFF760F82548007890282FD124A0FEF71F
:104DF00061FA2248407803280ED12048817825A006
:104E0000FEF758FA1D48C1782BA0FEF753FA1B484D
:104E1000017932A0FEF74EFA18484078022809D1ED
:104E2000164881781BA0FEF745FA1448C17822A0E5
:104E3000FEF740FA11484078012804D10F488178E4
:104E400014A0FEF737FA0020BDE8F88FBAF1000091
:104E5000AAF1010AC3D1B9F10000A9F10109AED14B
:104E6000B9F1000F00D0EFE74FF0FF30ECE70000A2
:104E70001C00002094020020040000209404002064
:104E8000B6A9D4C4D6F7CCE2C8B7C8CFB3C9B9A6BF
:104E90000D0A000053756363657373202D204D6107
:104EA00078696D756D20516F53203020697320250E
:104EB0003032580D0A000000537563636573732028
:104EC0002D204D6178696D756D20516F5320322012
:104ED000697320253032580D0A0000004661696C64
:104EE00075726520697320253032580D0A00000064
:104EF00010B50AA0FFF7E4F941F2883112A0FFF7DC
:104F000089F904460CB1204610BDFFF731F904467B
:104F10000CB12046F8E70020F6E7000041542B438F
:104F2000495053544152543D22544350222C22772D
:104F300077772E73656E6976657273652E636F6D14
:104F4000222C38300D0A00004F4B000070B504468B
:104F500041F2883510A0FFF7B3F91DA0FFF7B0F9B3
:104F600002E00120FEF79EFF1D48006818B9281EC8
:104F7000A5F10105F5D10020194908602DB919A046
:104F8000FEF798F94FF0FF3070BD21461E48FFF73D
:104F9000A1F906463046F7E7474554202F74696D5E
:104FA0006531352E61737020485454502F312E31A5
:104FB0000D0A486F73743A7777772E6265696A696C
:104FC0006E672D74696D652E6F72670D0A000000A3
:104FD0002E2E2E2E2E2E2E2E2E2E2E0D0A000000C0
:104FE000140000205B6572726F725D2073657276CB
:104FF000657220726573706F6E73652074696D657C
:105000006F75740D0A000000AA06002038B504462A
:10501000002000900CB9401E38BD2078442802D0F2
:105020006FF00100F8E700200090022204F10B016C
:105030006846FBF7B5F86846FBF792FA5D49C87118
:1050400003225DA104F10E00FBF7CBF818B9012093
:105050005849887177E0032258A104F10E00FBF74C
:10506000C0F818B90220534988716CE0032254A19A
:1050700004F10E00FBF7B5F818B903204D4988710B
:1050800061E003224FA104F10E00FBF7AAF818B962
:1050900004204849887156E003224BA104F10E0018
:1050A000FBF79FF818B90520424988714BE00322AD
:1050B00046A104F10E00FBF794F818B906203D490B
:1050C000887140E0032242A104F10E00FBF789F849
:1050D00018B907203749887135E003223DA104F152
:1050E0000E00FBF77EF818B90820324988712AE0D3
:1050F000032239A104F10E00FBF773F818B9092057
:105100002C4988711FE0032234A104F10E00FBF743
:1051100068F818B90A202749887114E0032230A1E1
:1051200004F10E00FBF75DF818B90B2021498871D6
:1051300009E003222BA104F10E00FBF752F810B98D
:105140000C201C49887100200090022204F11401F7
:105150006846FBF725F86846FBF702FA1549888090
:1051600000200090022204F117016846FBF718F8AE
:105170006846FBF7F5F90F490870002000900222FD
:1051800004F11A016846FBF70BF86846FBF7E8F9EB
:105190000849487000200090022204F11D01684671
:1051A000FAF7FEFF6846FBF7DBF90249887000203A
:1051B00032E70000A00600204A616E0046656200EA
:1051C0004D617200417072004D6179004A756E0048
:1051D0004A756C0041756700536570004F63740039
:1051E0004E6F7600446563002DE9F04180460C4621
:1051F00000250027E068B0F57A7F02D30020BDE8E3
:10520000F081E068401CE060A1682068405C5B2899
:1052100000D05FE0A068401CA0602046FEF72AFD99
:105220004CB1D4E90110884205D2A1682068405CE5
:105230005D2800D13FE01CB1D4E90110884203D3BE
:10524000A068401EA06045E0A068401EA06000BFAE
:1052500004F11000FEF76FFD064606B93AE015B9F5
:105260003546374602E03E6077603746A068401C0E
:10527000A0602046FEF7FEFC2146384600F060FAAA
:1052800000B927E02046FEF7F5FC44B1D4E901104F
:10529000884204D2A1682068405C2C28D8D044B150
:1052A000D4E90110884204D2A1682068405C5D28DE
:1052B00000D00FE000BFE068401EE06005B16F6005
:1052C0002020C8F80C00C8F80850A068401CA06056
:1052D000012094E715B12846FEF7F0FC00208EE788
:1052E00002460023002100BF23E0505C302806DB8B
:1052F000505C392803DC505C3038034415E0505CC6
:10530000412806DB505C462803DC505C37380344F8
:105310000BE0505C612806DB505C662803DC505CC7
:105320005738034401E000207047032900D21B01D5
:10533000491C0429D9D31846F6E700002DE9F043AB
:1053400091B080460C4600BF00201090FEF7F6FF9B
:10535000814600250CB1206818B9002011B0BDE8C5
:10536000F08300253CE0A16820680844405D3428B3
:1053700020D00ADCA0F12B0009282ED2DFE800F0B3
:10538000202D212A2D1617181900382816D006DCD2
:10539000352810D036280FD037281ED10DE03928F7
:1053A0000DD045280FD0652817D10BE000BF00BFF6
:1053B00000BF00BF00BF00BF00BF00BF00BF00BFF5
:1053C00000BF00BF00BFA16820680844405D0DF821
:1053D000050003E00DF8059000E00AE000BF6D1C39
:1053E0003F2D05D224B1A068284461688842BAD311
:1053F00000BF00200DF8050010A9684600F092FAE1
:1054000006460F4668461099884201D10020A5E75C
:10541000C8E90667144A154B30463946FBF7FEF9D2
:1054200004D86FF00040C8F8140011E00022104BBF
:1054300030463946FBF7DAF904D84FF00040C8F897
:10544000140005E030463946FBF7B0F9C8F81400FF
:105450000820C8F80C00A0686A461099891A084408
:10546000A06001207AE700000000C0FFFFFFDF41DD
:105470000000E0C12DE9F04180460C4600260025E1
:10548000E068B0F57A7F02D30020BDE8F081E068E3
:10549000401CE06044B1D4E90110884204D2A16804
:1054A0002068405C7B2800D07DE0A068401CA060A4
:1054B0002046FEF7DFFB4CB1D4E90110884205D24B
:1054C000A1682068405C7D2800D15DE01CB1D4E972
:1054D0000110884203D3A068401EA06063E0A0686A
:1054E000401EA06000BF04F11000FEF724FC074638
:1054F00007B958E016B93E463D4602E02F607D6090
:105500003D46A068401CA0602046FEF7B3FB214644
:10551000284600F04EF800B945E02046FEF7AAFB09
:10552000286928620020286144B1D4E9011088422A
:1055300004D2A1682068405C3A2800D033E0A0681B
:10554000401CA0602046FEF795FB2146284600F04F
:10555000F7F800B927E02046FEF78CFB44B1D4E908
:105560000110884204D2A1682068405C2C28BAD07F
:1055700044B1D4E90110884204D2A1682068405C9B
:105580007D2800D00FE000BFE068401EE06006B15B
:1055900075604020C8F80C00C8F80860A068401C7E
:1055A000A060012071E716B13046FEF787FB0020AE
:1055B0006BE72DE9F84F80460C46A1682068084447
:1055C000461CA16820680844451C00200090002764
:1055D000A1682068405C222800D0A6E04FF0000AB5
:1055E000D1460DE028785C2809D1681C2168401A52
:1055F0006168884200D398E009F101096D1C6D1CB7
:105600002068281A6168884202D228782228E9D1C5
:105610002068281A6168884202D22878222800D09F
:1056200083E0A16820680844281AA0EB090A0AF15F
:10563000010021698847074607B976E0009761E0D5
:1056400030785C2807D016F8010B00990870009894
:10565000401C009056E04FF00209A81B012800DA18
:1056600063E07078662819D008DC222832D02F2811
:1056700032D05C282FD0622840D108E06E2814D0A8
:10568000722819D074281ED0752837D12BE0082035
:10569000009908700098401C009030E00C200099A0
:1056A00008700098401C009029E00A2000990870BA
:1056B0000098401C009022E00D200099087000988E
:1056C000401C00901BE00920009908700098401CC5
:1056D000009014E000BF00BF707800990870009837
:1056E000401C00900BE06A462946304600F028F93D
:1056F0008146B9F1000F00D117E000E015E000BFCE
:105700004E4400BFAE429BD3002000990870102089
:10571000C8F80C00C8F810702068281AA060A068AB
:10572000401CA0600120BDE8F88F17B138466169C0
:10573000884716B12068301AA0600020F3E7000007
:1057400070B505460C460CB1206808B9002070BD44
:105750009CB1A068001D616888420ED8A2682168CB
:10576000881804223FA1FAF73CFD30B90420E86014
:10577000A068001DA0600120E9E79CB1A068401D61
:10578000616888420ED8A26821688818052237A16E
:10579000FAF727FD30B90120E860A068401DA0603D
:1057A0000120D4E7ACB1A068001D6168884210D820
:1057B000A2682168881804222EA1FAF712FD40B9C8
:1057C0000220E86001206861A068001DA06001203F
:1057D000BDE76CB1D4E90110884209D2A168206804
:1057E000405C222804D121462846FFF7E2FEAEE7BE
:1057F000BCB1D4E90110884213D2A1682068405C92
:105800002D2809D0A1682068405C302809DBA168F8
:105810002068405C392804DC21462846FFF78EFDCD
:1058200095E76CB1D4E90110884209D2A1682068DB
:10583000405C5B2804D121462846FFF7D5FC86E76B
:105840006CB1D4E90110884209D2A1682068405C9B
:105850007B2804D121462846FFF70CFE77E700207D
:1058600075E700006E756C6C0000000066616C737B
:105870006500000074727565000000002DE9F047B6
:1058800004008A4616D054F8047CD4F800903E1FD9
:10589000564500D956462046FDF734FD0546884654
:1058A000324621465046FEF775FD40B1C0F80090E3
:1058B000BDE8F087BDE8F0470846FDF751BD44E973
:1058C000017955B129686A18211F8A4202D9611BE2
:1058D000091F2960C5F80480EAE7024AC2F800807F
:1058E000E6E700008800002010B504461CB12068DF
:1058F00008B1A06808B1002010BD7CB1A068001DEF
:10590000616888420AD2A26821688818032204A12B
:10591000FAF767FC10B9A068C01CA0602046EBE74E
:10592000EFBBBF0000B583B00A460021CDE90011EE
:1059300001466846FBF73DF8DDE9000103B000BD14
:105940002DE9FF5F80468946154600240026C246A1
:1059500000200390834602900190A9EB0A000628DC
:1059600000DA81E00AF10200FFF7BAFC0646B6F55C
:105970005C4F03D3B6F5604F00D275E0B6F5584FD3
:1059800029D3B6F55C4F26D20AF106070020009015
:105990000C200290A9EB0700062800DA64E03878B2
:1059A0005C2802D17878752800D05DE0B81CFFF73C
:1059B00097FC00900098B0F55C4F03D30098B0F5C9
:1059C000604F00D350E0C6F30901009861F39F20B7
:1059D00000F5803402E0062002903446802C02D28A
:1059E0000120039018E0B4F5006F04D20220039068
:1059F000C020019010E0B4F5803F04D20320039052
:105A0000E020019008E0B4F5881F04D20420039040
:105A1000F020019000E027E00398401E00F0FF0B0B
:105A20000BE004F0BF0040F08000296801F80B0093
:105A3000A409ABF1010000F0FF0BBBF1000FF0DC9B
:105A40000398012804DD019820432968087003E0C9
:105A500004F07F00296808702968039808442860CA
:105A6000029804B0BDE8F09F0020FAE76D61696E0E
:105A7000000003030601040602050003051F1C1FA6
:105A80001E1F1E1F1F1E1F1E1F0040404040404083
:105A90004040404141414141404040404040404001
:105AA0004040404040404040404005020202020267
:105AB0000202020202020202020220202020202012
:105AC0002020202002020202020202909090909078
:105AD0009010101010101010101010101010101046
